{"src/SnapBountyEscrow.sol":{"SnapBountyEscrow":{"abi":[{"inputs":[{"internalType":"address","name":"_usdc","type":"address"},{"internalType":"address","name":"_treasury","type":"address"},{"internalType":"uint256","name":"_platformFeeBps","type":"uint256"}],"stateMutability":"nonpayable","type":"constructor"},{"inputs":[],"name":"AlreadyHasActiveClaim","type":"error"},{"inputs":[],"name":"BountyExpired","type":"error"},{"inputs":[],"name":"BountyNotExpired","type":"error"},{"inputs":[],"name":"InvalidAddress","type":"error"},{"inputs":[],"name":"InvalidAmount","type":"error"},{"inputs":[],"name":"InvalidBountyId","type":"error"},{"inputs":[],"name":"InvalidFee","type":"error"},{"inputs":[],"name":"InvalidStatus","type":"error"},{"inputs":[],"name":"NoActiveClaim","type":"error"},{"inputs":[],"name":"NotBountyCreator","type":"error"},{"inputs":[],"name":"NotBountyHunter","type":"error"},{"inputs":[],"name":"NotOwner","type":"error"},{"inputs":[],"name":"ReentrancyGuardReentrantCall","type":"error"},{"inputs":[],"name":"TransferFailed","type":"error"},{"anonymous":false,"inputs":[{"indexed":true,"internalType":"uint256","name":"bountyId","type":"uint256"},{"indexed":true,"internalType":"address","name":"creator","type":"address"},{"indexed":false,"internalType":"uint256","name":"refundAmount","type":"uint256"}],"name":"BountyCancelled","type":"event"},{"anonymous":false,"inputs":[{"indexed":true,"internalType":"uint256","name":"bountyId","type":"uint256"},{"indexed":true,"internalType":"address","name":"hunter","type":"address"},{"indexed":false,"internalType":"uint256","name":"claimedAt","type":"uint256"}],"name":"BountyClaimed","type":"event"},{"anonymous":false,"inputs":[{"indexed":true,"internalType":"uint256","name":"bountyId","type":"uint256"},{"indexed":true,"internalType":"address","name":"creator","type":"address"},{"indexed":false,"internalType":"uint256","name":"reward","type":"uint256"},{"indexed":false,"internalType":"uint256","name":"deadline","type":"uint256"}],"name":"BountyCreated","type":"event"},{"anonymous":false,"inputs":[{"indexed":true,"internalType":"uint256","name":"bountyId","type":"uint256"},{"indexed":true,"internalType":"address","name":"hunter","type":"address"}],"name":"ClaimReleased","type":"event"},{"anonymous":false,"inputs":[{"indexed":false,"internalType":"uint256","name":"oldFee","type":"uint256"},{"indexed":false,"internalType":"uint256","name":"newFee","type":"uint256"}],"name":"FeeUpdated","type":"event"},{"anonymous":false,"inputs":[{"indexed":true,"internalType":"address","name":"previousOwner","type":"address"},{"indexed":true,"internalType":"address","name":"newOwner","type":"address"}],"name":"OwnershipTransferred","type":"event"},{"anonymous":false,"inputs":[{"indexed":true,"internalType":"address","name":"oldTreasury","type":"address"},{"indexed":true,"internalType":"address","name":"newTreasury","type":"address"}],"name":"TreasuryUpdated","type":"event"},{"anonymous":false,"inputs":[{"indexed":true,"internalType":"uint256","name":"bountyId","type":"uint256"},{"indexed":true,"internalType":"address","name":"hunter","type":"address"},{"indexed":false,"internalType":"uint256","name":"payout","type":"uint256"},{"indexed":false,"internalType":"uint256","name":"fee","type":"uint256"}],"name":"WorkApproved","type":"event"},{"anonymous":false,"inputs":[{"indexed":true,"internalType":"uint256","name":"bountyId","type":"uint256"},{"indexed":true,"internalType":"address","name":"hunter","type":"address"},{"indexed":false,"internalType":"string","name":"reason","type":"string"}],"name":"WorkRejected","type":"event"},{"anonymous":false,"inputs":[{"indexed":true,"internalType":"uint256","name":"bountyId","type":"uint256"},{"indexed":true,"internalType":"address","name":"hunter","type":"address"},{"indexed":false,"internalType":"bytes32","name":"proofHash","type":"bytes32"}],"name":"WorkSubmitted","type":"event"},{"inputs":[],"name":"BPS_DENOMINATOR","outputs":[{"internalType":"uint256","name":"","type":"uint256"}],"stateMutability":"view","type":"function"},{"inputs":[],"name":"MAX_FEE_BPS","outputs":[{"internalType":"uint256","name":"","type":"uint256"}],"stateMutability":"view","type":"function"},{"inputs":[{"internalType":"address","name":"","type":"address"}],"name":"activeClaim","outputs":[{"internalType":"uint256","name":"","type":"uint256"}],"stateMutability":"view","type":"function"},{"inputs":[{"internalType":"uint256","name":"bountyId","type":"uint256"}],"name":"approveWork","outputs":[],"stateMutability":"nonpayable","type":"function"},{"inputs":[{"internalType":"uint256","name":"","type":"uint256"}],"name":"bounties","outputs":[{"internalType":"address","name":"creator","type":"address"},{"internalType":"address","name":"hunter","type":"address"},{"internalType":"uint256","name":"reward","type":"uint256"},{"internalType":"enum SnapBountyEscrow.BountyStatus","name":"status","type":"uint8"},{"internalType":"bytes32","name":"proofHash","type":"bytes32"},{"internalType":"uint256","name":"deadline","type":"uint256"},{"internalType":"uint256","name":"createdAt","type":"uint256"},{"internalType":"uint256","name":"claimedAt","type":"uint256"}],"stateMutability":"view","type":"function"},{"inputs":[],"name":"bountyCount","outputs":[{"internalType":"uint256","name":"","type":"uint256"}],"stateMutability":"view","type":"function"},{"inputs":[{"internalType":"uint256","name":"bountyId","type":"uint256"}],"name":"cancelBounty","outputs":[],"stateMutability":"nonpayable","type":"function"},{"inputs":[{"internalType":"uint256","name":"bountyId","type":"uint256"}],"name":"claimBounty","outputs":[],"stateMutability":"nonpayable","type":"function"},{"inputs":[{"internalType":"uint256","name":"reward","type":"uint256"},{"internalType":"uint256","name":"deadline","type":"uint256"}],"name":"createBounty","outputs":[{"internalType":"uint256","name":"bountyId","type":"uint256"}],"stateMutability":"nonpayable","type":"function"},{"inputs":[{"internalType":"address","name":"hunter","type":"address"}],"name":"getActiveClaim","outputs":[{"internalType":"uint256","name":"","type":"uint256"}],"stateMutability":"view","type":"function"},{"inputs":[{"internalType":"uint256","name":"bountyId","type":"uint256"}],"name":"getBounty","outputs":[{"components":[{"internalType":"address","name":"creator","type":"address"},{"internalType":"address","name":"hunter","type":"address"},{"internalType":"uint256","name":"reward","type":"uint256"},{"internalType":"enum SnapBountyEscrow.BountyStatus","name":"status","type":"uint8"},{"internalType":"bytes32","name":"proofHash","type":"bytes32"},{"internalType":"uint256","name":"deadline","type":"uint256"},{"internalType":"uint256","name":"createdAt","type":"uint256"},{"internalType":"uint256","name":"claimedAt","type":"uint256"}],"internalType":"struct SnapBountyEscrow.Bounty","name":"","type":"tuple"}],"stateMutability":"view","type":"function"},{"inputs":[{"internalType":"uint256","name":"bountyId","type":"uint256"}],"name":"isExpired","outputs":[{"internalType":"bool","name":"","type":"bool"}],"stateMutability":"view","type":"function"},{"inputs":[],"name":"owner","outputs":[{"internalType":"address","name":"","type":"address"}],"stateMutability":"view","type":"function"},{"inputs":[],"name":"platformFeeBps","outputs":[{"internalType":"uint256","name":"","type":"uint256"}],"stateMutability":"view","type":"function"},{"inputs":[{"internalType":"uint256","name":"bountyId","type":"uint256"},{"internalType":"string","name":"reason","type":"string"}],"name":"rejectWork","outputs":[],"stateMutability":"nonpayable","type":"function"},{"inputs":[{"internalType":"uint256","name":"bountyId","type":"uint256"}],"name":"releaseClaim","outputs":[],"stateMutability":"nonpayable","type":"function"},{"inputs":[{"internalType":"uint256","name":"newFeeBps","type":"uint256"}],"name":"setPlatformFee","outputs":[],"stateMutability":"nonpayable","type":"function"},{"inputs":[{"internalType":"address","name":"newTreasury","type":"address"}],"name":"setTreasury","outputs":[],"stateMutability":"nonpayable","type":"function"},{"inputs":[{"internalType":"uint256","name":"bountyId","type":"uint256"},{"internalType":"bytes32","name":"proofHash","type":"bytes32"}],"name":"submitWork","outputs":[],"stateMutability":"nonpayable","type":"function"},{"inputs":[{"internalType":"address","name":"newOwner","type":"address"}],"name":"transferOwnership","outputs":[],"stateMutability":"nonpayable","type":"function"},{"inputs":[],"name":"treasury","outputs":[{"internalType":"address","name":"","type":"address"}],"stateMutability":"view","type":"function"},{"inputs":[],"name":"usdc","outputs":[{"internalType":"contract IERC20","name":"","type":"address"}],"stateMutability":"view","type":"function"}],"evm":{"bytecode":{"linkReferences":{},"object":"60a06040523480156200001157600080fd5b50604051620017c8380380620017c88339810160408190526200003491620000f4565b60016000556001600160a01b03831615806200005757506001600160a01b038216155b15620000765760405163e6c4247b60e01b815260040160405180910390fd5b6103e88111156200009a576040516358d620b360e01b815260040160405180910390fd5b6001600160a01b0392831660805260018054929093166001600160a01b031992831617909255600291909155600680549091163317905562000135565b80516001600160a01b0381168114620000ef57600080fd5b919050565b6000806000606084860312156200010a57600080fd5b6200011584620000d7565b92506200012560208501620000d7565b9150604084015190509250925092565b60805161165b6200016d600039600081816101cc0152818161067a0152818161073901528181610a260152611022015261165b6000f3fe608060405234801561001057600080fd5b50600436106101425760003560e01c80638da5cb5b116100b8578063dc2f87441161007c578063dc2f8744146102cd578063e1a4521814610343578063e5e5dff11461034c578063ee8c4bbf1461035f578063f0f442601461037f578063f2fde38b1461039257600080fd5b80638da5cb5b14610268578063a8bde4eb1461027b578063d55be8c61461028e578063d7ec40ee14610297578063d9548e53146102aa57600080fd5b80633e362c961161010a5780633e362c96146101be5780633e413bee146101c757806344021ad7146102065780634c31308c1461021957806361d027b3146102425780637925d4201461025557600080fd5b80630a9eeded1461014757806312e8e2c31461015c57806322dcd13e1461016f5780632eaf8a2b1461018b5780633d01e0fa146101ab575b600080fd5b61015a61015536600461137b565b6103a5565b005b61015a61016a36600461139d565b6104b7565b61017860025481565b6040519081526020015b60405180910390f35b6101786101993660046113b6565b60056020526000908152604090205481565b61015a6101b936600461139d565b61054a565b61017860035481565b6101ee7f000000000000000000000000000000000000000000000000000000000000000081565b6040516001600160a01b039091168152602001610182565b61015a61021436600461139d565b610826565b6101786102273660046113b6565b6001600160a01b031660009081526005602052604090205490565b6001546101ee906001600160a01b031681565b61017861026336600461137b565b6109a9565b6006546101ee906001600160a01b031681565b61015a61028936600461139d565b610c00565b6101786103e881565b61015a6102a53660046113e6565b610d07565b6102bd6102b836600461139d565b610e10565b6040519015158152602001610182565b61032f6102db36600461139d565b6004602081905260009182526040909120805460018201546002830154600384015494840154600585015460068601546007909601546001600160a01b03958616979590941695929460ff16939192909188565b60405161018298979695949392919061149a565b61017861271081565b61015a61035a36600461139d565b610e6c565b61037261036d36600461139d565b6110f4565b60405161018291906114ec565b61015a61038d3660046113b6565b611209565b61015a6103a03660046113b6565b6112ad565b818015806103b4575060035481115b156103d25760405163683267d360e11b815260040160405180910390fd5b600083815260046020526040902060018101546001600160a01b0316331461040d5760405163f722439560e01b815260040160405180910390fd5b6001600382015460ff16600481111561042857610428611462565b14610446576040516307a92f1960e51b815260040160405180910390fd5b826104645760405163162908e360e11b815260040160405180910390fd5b60038101805460ff1916600217905560048101839055604051838152339085907f829bcb7646703ca0e2dd5bcbff7bd5f68118210ef17c6bbcfa52a31136cb66ec9060200160405180910390a350505050565b6006546001600160a01b031633146104e2576040516330cd747160e01b815260040160405180910390fd5b6103e8811115610505576040516358d620b360e01b815260040160405180910390fd5b600280549082905560408051828152602081018490527f528d9479e9f9889a87a3c30c7f7ba537e5e59c4c85a37733b16e57c62df61302910160405180910390a15050565b610552611351565b80801580610561575060035481115b1561057f5760405163683267d360e11b815260040160405180910390fd5b600082815260046020526040902080546001600160a01b031633146105b757604051636431e4c160e11b815260040160405180910390fd5b6002600382015460ff1660048111156105d2576105d2611462565b146105f0576040516307a92f1960e51b815260040160405180910390fd5b60006127106002548360020154610607919061156f565b6106119190611586565b9050600081836002015461062591906115a8565b6003848101805460ff191690911790556001840180546001600160a01b039081166000908152600560205260408082208290559254925163a9059cbb60e01b81529282166004840152602483018490529293507f0000000000000000000000000000000000000000000000000000000000000000169063a9059cbb906044016020604051808303816000875af11580156106c3573d6000803e3d6000fd5b505050506040513d601f19601f820116820180604052508101906106e791906115bb565b905080610707576040516312171d8360e31b815260040160405180910390fd5b82156107c85760015460405163a9059cbb60e01b81526001600160a01b039182166004820152602481018590526000917f0000000000000000000000000000000000000000000000000000000000000000169063a9059cbb906044016020604051808303816000875af1158015610782573d6000803e3d6000fd5b505050506040513d601f19601f820116820180604052508101906107a691906115bb565b9050806107c6576040516312171d8360e31b815260040160405180910390fd5b505b600184015460408051848152602081018690526001600160a01b039092169188917fe6948f6bea73b2b13dd161269153f528dca531b28d65544489b767506f839191910160405180910390a350505050506108236001600055565b50565b80801580610835575060035481115b156108535760405163683267d360e11b815260040160405180910390fd5b600082815260046020526040812090600382015460ff16600481111561087b5761087b611462565b14610899576040516307a92f1960e51b815260040160405180910390fd5b6005810154158015906108b0575080600501544210155b156108ce576040516336cb7f3d60e21b815260040160405180910390fd5b33600090815260056020526040902054156108fc5760405163fe86039960e01b815260040160405180910390fd5b80546001600160a01b031633036109265760405163e6c4247b60e01b815260040160405180910390fd5b600180820180546001600160a01b0319163317905560038201805460ff1916828002179055504260078201819055336000818152600560205260409081902086905551909185917f23c972d46b3251ae358ad69fb3761ef8f5c38c5131502ed9e9bde9b129da92159161099c9190815260200190565b60405180910390a3505050565b60006109b3611351565b826000036109d45760405163162908e360e11b815260040160405180910390fd5b81158015906109e35750428211155b15610a01576040516336cb7f3d60e21b815260040160405180910390fd5b6040516323b872dd60e01b8152336004820152306024820152604481018490526000907f00000000000000000000000000000000000000000000000000000000000000006001600160a01b0316906323b872dd906064016020604051808303816000875af1158015610a77573d6000803e3d6000fd5b505050506040513d601f19601f82011682018060405250810190610a9b91906115bb565b905080610abb576040516312171d8360e31b815260040160405180910390fd5b60038054906000610acb836115dd565b9091555050600380546040805161010081018252338152600060208083018281528385018b8152606085018481526080860185905260a086018c90524260c087015260e0860185905287855260049384905295909320845181546001600160a01b03199081166001600160a01b039283161783559251600180840180549095169190921617909255925160028401559351958201805495985092959194919360ff1990921691908490811115610b8357610b83611462565b02179055506080820151600482015560a0820151600582015560c0820151600682015560e0909101516007909101556040805185815260208101859052339184917fc0718c24656ec3133a0a8bd25e68ebd7c25a017fde29dd1a67ff3f40f487112d910160405180910390a350610bfa6001600055565b92915050565b80801580610c0f575060035481115b15610c2d5760405163683267d360e11b815260040160405180910390fd5b600082815260046020526040902060018101546001600160a01b03163314610c685760405163f722439560e01b815260040160405180910390fd5b6001600382015460ff166004811115610c8357610c83611462565b14610ca1576040516307a92f1960e51b815260040160405180910390fd5b6001810180546001600160a01b031916905560038101805460ff19169055600060078201819055338082526005602052604080832083905551909185917f909d0309e792d4f17972cef6c4067bfd0b5fa112dd3aa00415fbac21afa3eb3e9190a3505050565b82801580610d16575060035481115b15610d345760405163683267d360e11b815260040160405180910390fd5b600084815260046020526040902080546001600160a01b03163314610d6c57604051636431e4c160e11b815260040160405180910390fd5b6002600382015460ff166004811115610d8757610d87611462565b14610da5576040516307a92f1960e51b815260040160405180910390fd5b60038101805460ff19166001908117909155600060048301558101546040516001600160a01b039091169086907ffb1f2b2d59e15c4d9793571c3df2fc8aa0fed8c4308b8f71ff5a77678e571e7290610e0190889088906115f6565b60405180910390a35050505050565b600081801580610e21575060035481115b15610e3f5760405163683267d360e11b815260040160405180910390fd5b6000838152600460205260409020600581015415801590610e64575080600501544210155b949350505050565b610e74611351565b80801580610e83575060035481115b15610ea15760405163683267d360e11b815260040160405180910390fd5b600082815260046020526040902080546001600160a01b03163314610ed957604051636431e4c160e11b815260040160405180910390fd5b60038082015460ff166004811115610ef357610ef3611462565b1480610f1757506004600382015460ff166004811115610f1557610f15611462565b145b15610f35576040516307a92f1960e51b815260040160405180910390fd5b6001600382015460ff166004811115610f5057610f50611462565b1480610f7457506002600382015460ff166004811115610f7257610f72611462565b145b15610fab5760058101541580610f8d5750806005015442105b15610fab57604051637bd500c960e01b815260040160405180910390fd5b600281015460018201546001600160a01b031615610fe15760018201546001600160a01b03166000908152600560205260408120555b6003820180546004919060ff19166001830217905550815460405163a9059cbb60e01b81526001600160a01b039182166004820152602481018390526000917f0000000000000000000000000000000000000000000000000000000000000000169063a9059cbb906044016020604051808303816000875af115801561106b573d6000803e3d6000fd5b505050506040513d601f19601f8201168201806040525081019061108f91906115bb565b9050806110af576040516312171d8360e31b815260040160405180910390fd5b604051828152339086907fb9670bf4f2273686f771c9ab65309436df5ed75afa63eefec8b67640d8bcf72c9060200160405180910390a3505050506108236001600055565b6040805161010081018252600080825260208201819052918101829052606081018290526080810182905260a0810182905260c0810182905260e081019190915281801580611144575060035481115b156111625760405163683267d360e11b815260040160405180910390fd5b60008381526004602081815260409283902083516101008101855281546001600160a01b039081168252600183015416928101929092526002810154938201939093526003830154909291606084019160ff16908111156111c5576111c5611462565b60048111156111d6576111d6611462565b81526004820154602082015260058201546040820152600682015460608201526007909101546080909101529392505050565b6006546001600160a01b03163314611234576040516330cd747160e01b815260040160405180910390fd5b6001600160a01b03811661125b5760405163e6c4247b60e01b815260040160405180910390fd5b600180546001600160a01b038381166001600160a01b0319831681179093556040519116919082907f4ab5be82436d353e61ca18726e984e561f5c1cc7c6d38b29d2553c790434705a90600090a35050565b6006546001600160a01b031633146112d8576040516330cd747160e01b815260040160405180910390fd5b6001600160a01b0381166112ff5760405163e6c4247b60e01b815260040160405180910390fd5b600680546001600160a01b038381166001600160a01b0319831681179093556040519116919082907f8be0079c531659141344cd1fd0a4f28419497f9722a3daafe3b4186f6b6457e090600090a35050565b60026000540361137457604051633ee5aeb560e01b815260040160405180910390fd5b6002600055565b6000806040838503121561138e57600080fd5b50508035926020909101359150565b6000602082840312156113af57600080fd5b5035919050565b6000602082840312156113c857600080fd5b81356001600160a01b03811681146113df57600080fd5b9392505050565b6000806000604084860312156113fb57600080fd5b83359250602084013567ffffffffffffffff8082111561141a57600080fd5b818601915086601f83011261142e57600080fd5b81358181111561143d57600080fd5b87602082850101111561144f57600080fd5b6020830194508093505050509250925092565b634e487b7160e01b600052602160045260246000fd5b6005811061149657634e487b7160e01b600052602160045260246000fd5b9052565b6001600160a01b038981168252881660208201526040810187905261010081016114c76060830188611478565b8560808301528460a08301528360c08301528260e08301529998505050505050505050565b81516001600160a01b039081168252602080840151909116908201526040808301519082015260608083015161010083019161152a90840182611478565b506080830151608083015260a083015160a083015260c083015160c083015260e083015160e083015292915050565b634e487b7160e01b600052601160045260246000fd5b8082028115828204841417610bfa57610bfa611559565b6000826115a357634e487b7160e01b600052601260045260246000fd5b500490565b81810381811115610bfa57610bfa611559565b6000602082840312156115cd57600080fd5b815180151581146113df57600080fd5b6000600182016115ef576115ef611559565b5060010190565b60208152816020820152818360408301376000818301604090810191909152601f909201601f1916010191905056fea2646970667358221220fbe3959793f61e294d514af586d7843fca59e504fffe40a3255de07cd4a6e70c64736f6c63430008180033","opcodes":"PUSH1 0xA0 PUSH1 0x40 MSTORE CALLVALUE DUP1 ISZERO PUSH3 0x11 JUMPI PUSH1 0x0 DUP1 REVERT JUMPDEST POP PUSH1 0x40 MLOAD PUSH3 0x17C8 CODESIZE SUB DUP1 PUSH3 0x17C8 DUP4 CODECOPY DUP2 ADD PUSH1 0x40 DUP2 SWAP1 MSTORE PUSH3 0x34 SWAP2 PUSH3 0xF4 JUMP JUMPDEST PUSH1 0x1 PUSH1 0x0 SSTORE PUSH1 0x1 PUSH1 0x1 PUSH1 0xA0 SHL SUB DUP4 AND ISZERO DUP1 PUSH3 0x57 JUMPI POP PUSH1 0x1 PUSH1 0x1 PUSH1 0xA0 SHL SUB DUP3 AND ISZERO JUMPDEST ISZERO PUSH3 0x76 JUMPI PUSH1 0x40 MLOAD PUSH4 0xE6C4247B PUSH1 0xE0 SHL DUP2 MSTORE PUSH1 0x4 ADD PUSH1 0x40 MLOAD DUP1 SWAP2 SUB SWAP1 REVERT JUMPDEST PUSH2 0x3E8 DUP2 GT ISZERO PUSH3 0x9A JUMPI PUSH1 0x40 MLOAD PUSH4 0x58D620B3 PUSH1 0xE0 SHL DUP2 MSTORE PUSH1 0x4 ADD PUSH1 0x40 MLOAD DUP1 SWAP2 SUB SWAP1 REVERT JUMPDEST PUSH1 0x1 PUSH1 0x1 PUSH1 0xA0 SHL SUB SWAP3 DUP4 AND PUSH1 0x80 MSTORE PUSH1 0x1 DUP1 SLOAD SWAP3 SWAP1 SWAP4 AND PUSH1 0x1 PUSH1 0x1 PUSH1 0xA0 SHL SUB NOT SWAP3 DUP4 AND OR SWAP1 SWAP3 SSTORE PUSH1 0x2 SWAP2 SWAP1 SWAP2 SSTORE PUSH1 0x6 DUP1 SLOAD SWAP1 SWAP2 AND CALLER OR SWAP1 SSTORE PUSH3 0x135 JUMP JUMPDEST DUP1 MLOAD PUSH1 0x1 PUSH1 0x1 PUSH1 0xA0 SHL SUB DUP2 AND DUP2 EQ PUSH3 0xEF JUMPI PUSH1 0x0 DUP1 REVERT JUMPDEST SWAP2 SWAP1 POP JUMP JUMPDEST PUSH1 0x0 DUP1 PUSH1 0x0 PUSH1 0x60 DUP5 DUP7 SUB SLT ISZERO PUSH3 0x10A JUMPI PUSH1 0x0 DUP1 REVERT JUMPDEST PUSH3 0x115 DUP5 PUSH3 0xD7 JUMP JUMPDEST SWAP3 POP PUSH3 0x125 PUSH1 0x20 DUP6 ADD PUSH3 0xD7 JUMP JUMPDEST SWAP2 POP PUSH1 0x40 DUP5 ADD MLOAD SWAP1 POP SWAP3 POP SWAP3 POP SWAP3 JUMP JUMPDEST PUSH1 0x80 MLOAD PUSH2 0x165B PUSH3 0x16D PUSH1 0x0 CODECOPY PUSH1 0x0 DUP2 DUP2 PUSH2 0x1CC ADD MSTORE DUP2 DUP2 PUSH2 0x67A ADD MSTORE DUP2 DUP2 PUSH2 0x739 ADD MSTORE DUP2 DUP2 PUSH2 0xA26 ADD MSTORE PUSH2 0x1022 ADD MSTORE PUSH2 0x165B PUSH1 0x0 RETURN INVALID PUSH1 0x80 PUSH1 0x40 MSTORE CALLVALUE DUP1 ISZERO PUSH2 0x10 JUMPI PUSH1 0x0 DUP1 REVERT JUMPDEST POP PUSH1 0x4 CALLDATASIZE LT PUSH2 0x142 JUMPI PUSH1 0x0 CALLDATALOAD PUSH1 0xE0 SHR DUP1 PUSH4 0x8DA5CB5B GT PUSH2 0xB8 JUMPI DUP1 PUSH4 0xDC2F8744 GT PUSH2 0x7C JUMPI DUP1 PUSH4 0xDC2F8744 EQ PUSH2 0x2CD JUMPI DUP1 PUSH4 0xE1A45218 EQ PUSH2 0x343 JUMPI DUP1 PUSH4 0xE5E5DFF1 EQ PUSH2 0x34C JUMPI DUP1 PUSH4 0xEE8C4BBF EQ PUSH2 0x35F JUMPI DUP1 PUSH4 0xF0F44260 EQ PUSH2 0x37F JUMPI DUP1 PUSH4 0xF2FDE38B EQ PUSH2 0x392 JUMPI PUSH1 0x0 DUP1 REVERT JUMPDEST DUP1 PUSH4 0x8DA5CB5B EQ PUSH2 0x268 JUMPI DUP1 PUSH4 0xA8BDE4EB EQ PUSH2 0x27B JUMPI DUP1 PUSH4 0xD55BE8C6 EQ PUSH2 0x28E JUMPI DUP1 PUSH4 0xD7EC40EE EQ PUSH2 0x297 JUMPI DUP1 PUSH4 0xD9548E53 EQ PUSH2 0x2AA JUMPI PUSH1 0x0 DUP1 REVERT JUMPDEST DUP1 PUSH4 0x3E362C96 GT PUSH2 0x10A JUMPI DUP1 PUSH4 0x3E362C96 EQ PUSH2 0x1BE JUMPI DUP1 PUSH4 0x3E413BEE EQ PUSH2 0x1C7 JUMPI DUP1 PUSH4 0x44021AD7 EQ PUSH2 0x206 JUMPI DUP1 PUSH4 0x4C31308C EQ PUSH2 0x219 JUMPI DUP1 PUSH4 0x61D027B3 EQ PUSH2 0x242 JUMPI DUP1 PUSH4 0x7925D420 EQ PUSH2 0x255 JUMPI PUSH1 0x0 DUP1 REVERT JUMPDEST DUP1 PUSH4 0xA9EEDED EQ PUSH2 0x147 JUMPI DUP1 PUSH4 0x12E8E2C3 EQ PUSH2 0x15C JUMPI DUP1 PUSH4 0x22DCD13E EQ PUSH2 0x16F JUMPI DUP1 PUSH4 0x2EAF8A2B EQ PUSH2 0x18B JUMPI DUP1 PUSH4 0x3D01E0FA EQ PUSH2 0x1AB JUMPI JUMPDEST PUSH1 0x0 DUP1 REVERT JUMPDEST PUSH2 0x15A PUSH2 0x155 CALLDATASIZE PUSH1 0x4 PUSH2 0x137B JUMP JUMPDEST PUSH2 0x3A5 JUMP JUMPDEST STOP JUMPDEST PUSH2 0x15A PUSH2 0x16A CALLDATASIZE PUSH1 0x4 PUSH2 0x139D JUMP JUMPDEST PUSH2 0x4B7 JUMP JUMPDEST PUSH2 0x178 PUSH1 0x2 SLOAD DUP2 JUMP JUMPDEST PUSH1 0x40 MLOAD SWAP1 DUP2 MSTORE PUSH1 0x20 ADD JUMPDEST PUSH1 0x40 MLOAD DUP1 SWAP2 SUB SWAP1 RETURN JUMPDEST PUSH2 0x178 PUSH2 0x199 CALLDATASIZE PUSH1 0x4 PUSH2 0x13B6 JUMP JUMPDEST PUSH1 0x5 PUSH1 0x20 MSTORE PUSH1 0x0 SWAP1 DUP2 MSTORE PUSH1 0x40 SWAP1 KECCAK256 SLOAD DUP2 JUMP JUMPDEST PUSH2 0x15A PUSH2 0x1B9 CALLDATASIZE PUSH1 0x4 PUSH2 0x139D JUMP JUMPDEST PUSH2 0x54A JUMP JUMPDEST PUSH2 0x178 PUSH1 0x3 SLOAD DUP2 JUMP JUMPDEST PUSH2 0x1EE PUSH32 0x0 DUP2 JUMP JUMPDEST PUSH1 0x40 MLOAD PUSH1 0x1 PUSH1 0x1 PUSH1 0xA0 SHL SUB SWAP1 SWAP2 AND DUP2 MSTORE PUSH1 0x20 ADD PUSH2 0x182 JUMP JUMPDEST PUSH2 0x15A PUSH2 0x214 CALLDATASIZE PUSH1 0x4 PUSH2 0x139D JUMP JUMPDEST PUSH2 0x826 JUMP JUMPDEST PUSH2 0x178 PUSH2 0x227 CALLDATASIZE PUSH1 0x4 PUSH2 0x13B6 JUMP JUMPDEST PUSH1 0x1 PUSH1 0x1 PUSH1 0xA0 SHL SUB AND PUSH1 0x0 SWAP1 DUP2 MSTORE PUSH1 0x5 PUSH1 0x20 MSTORE PUSH1 0x40 SWAP1 KECCAK256 SLOAD SWAP1 JUMP JUMPDEST PUSH1 0x1 SLOAD PUSH2 0x1EE SWAP1 PUSH1 0x1 PUSH1 0x1 PUSH1 0xA0 SHL SUB AND DUP2 JUMP JUMPDEST PUSH2 0x178 PUSH2 0x263 CALLDATASIZE PUSH1 0x4 PUSH2 0x137B JUMP JUMPDEST PUSH2 0x9A9 JUMP JUMPDEST PUSH1 0x6 SLOAD PUSH2 0x1EE SWAP1 PUSH1 0x1 PUSH1 0x1 PUSH1 0xA0 SHL SUB AND DUP2 JUMP JUMPDEST PUSH2 0x15A PUSH2 0x289 CALLDATASIZE PUSH1 0x4 PUSH2 0x139D JUMP JUMPDEST PUSH2 0xC00 JUMP JUMPDEST PUSH2 0x178 PUSH2 0x3E8 DUP2 JUMP JUMPDEST PUSH2 0x15A PUSH2 0x2A5 CALLDATASIZE PUSH1 0x4 PUSH2 0x13E6 JUMP JUMPDEST PUSH2 0xD07 JUMP JUMPDEST PUSH2 0x2BD PUSH2 0x2B8 CALLDATASIZE PUSH1 0x4 PUSH2 0x139D JUMP JUMPDEST PUSH2 0xE10 JUMP JUMPDEST PUSH1 0x40 MLOAD SWAP1 ISZERO ISZERO DUP2 MSTORE PUSH1 0x20 ADD PUSH2 0x182 JUMP JUMPDEST PUSH2 0x32F PUSH2 0x2DB CALLDATASIZE PUSH1 0x4 PUSH2 0x139D JUMP JUMPDEST PUSH1 0x4 PUSH1 0x20 DUP2 SWAP1 MSTORE PUSH1 0x0 SWAP2 DUP3 MSTORE PUSH1 0x40 SWAP1 SWAP2 KECCAK256 DUP1 SLOAD PUSH1 0x1 DUP3 ADD SLOAD PUSH1 0x2 DUP4 ADD SLOAD PUSH1 0x3 DUP5 ADD SLOAD SWAP5 DUP5 ADD SLOAD PUSH1 0x5 DUP6 ADD SLOAD PUSH1 0x6 DUP7 ADD SLOAD PUSH1 0x7 SWAP1 SWAP7 ADD SLOAD PUSH1 0x1 PUSH1 0x1 PUSH1 0xA0 SHL SUB SWAP6 DUP7 AND SWAP8 SWAP6 SWAP1 SWAP5 AND SWAP6 SWAP3 SWAP5 PUSH1 0xFF AND SWAP4 SWAP2 SWAP3 SWAP1 SWAP2 DUP9 JUMP JUMPDEST PUSH1 0x40 MLOAD PUSH2 0x182 SWAP9 SWAP8 SWAP7 SWAP6 SWAP5 SWAP4 SWAP3 SWAP2 SWAP1 PUSH2 0x149A JUMP JUMPDEST PUSH2 0x178 PUSH2 0x2710 DUP2 JUMP JUMPDEST PUSH2 0x15A PUSH2 0x35A CALLDATASIZE PUSH1 0x4 PUSH2 0x139D JUMP JUMPDEST PUSH2 0xE6C JUMP JUMPDEST PUSH2 0x372 PUSH2 0x36D CALLDATASIZE PUSH1 0x4 PUSH2 0x139D JUMP JUMPDEST PUSH2 0x10F4 JUMP JUMPDEST PUSH1 0x40 MLOAD PUSH2 0x182 SWAP2 SWAP1 PUSH2 0x14EC JUMP JUMPDEST PUSH2 0x15A PUSH2 0x38D CALLDATASIZE PUSH1 0x4 PUSH2 0x13B6 JUMP JUMPDEST PUSH2 0x1209 JUMP JUMPDEST PUSH2 0x15A PUSH2 0x3A0 CALLDATASIZE PUSH1 0x4 PUSH2 0x13B6 JUMP JUMPDEST PUSH2 0x12AD JUMP JUMPDEST DUP2 DUP1 ISZERO DUP1 PUSH2 0x3B4 JUMPI POP PUSH1 0x3 SLOAD DUP2 GT JUMPDEST ISZERO PUSH2 0x3D2 JUMPI PUSH1 0x40 MLOAD PUSH4 0x683267D3 PUSH1 0xE1 SHL DUP2 MSTORE PUSH1 0x4 ADD PUSH1 0x40 MLOAD DUP1 SWAP2 SUB SWAP1 REVERT JUMPDEST PUSH1 0x0 DUP4 DUP2 MSTORE PUSH1 0x4 PUSH1 0x20 MSTORE PUSH1 0x40 SWAP1 KECCAK256 PUSH1 0x1 DUP2 ADD SLOAD PUSH1 0x1 PUSH1 0x1 PUSH1 0xA0 SHL SUB AND CALLER EQ PUSH2 0x40D JUMPI PUSH1 0x40 MLOAD PUSH4 0xF7224395 PUSH1 0xE0 SHL DUP2 MSTORE PUSH1 0x4 ADD PUSH1 0x40 MLOAD DUP1 SWAP2 SUB SWAP1 REVERT JUMPDEST PUSH1 0x1 PUSH1 0x3 DUP3 ADD SLOAD PUSH1 0xFF AND PUSH1 0x4 DUP2 GT ISZERO PUSH2 0x428 JUMPI PUSH2 0x428 PUSH2 0x1462 JUMP JUMPDEST EQ PUSH2 0x446 JUMPI PUSH1 0x40 MLOAD PUSH4 0x7A92F19 PUSH1 0xE5 SHL DUP2 MSTORE PUSH1 0x4 ADD PUSH1 0x40 MLOAD DUP1 SWAP2 SUB SWAP1 REVERT JUMPDEST DUP3 PUSH2 0x464 JUMPI PUSH1 0x40 MLOAD PUSH4 0x162908E3 PUSH1 0xE1 SHL DUP2 MSTORE PUSH1 0x4 ADD PUSH1 0x40 MLOAD DUP1 SWAP2 SUB SWAP1 REVERT JUMPDEST PUSH1 0x3 DUP2 ADD DUP1 SLOAD PUSH1 0xFF NOT AND PUSH1 0x2 OR SWAP1 SSTORE PUSH1 0x4 DUP2 ADD DUP4 SWAP1 SSTORE PUSH1 0x40 MLOAD DUP4 DUP2 MSTORE CALLER SWAP1 DUP6 SWAP1 PUSH32 0x829BCB7646703CA0E2DD5BCBFF7BD5F68118210EF17C6BBCFA52A31136CB66EC SWAP1 PUSH1 0x20 ADD PUSH1 0x40 MLOAD DUP1 SWAP2 SUB SWAP1 LOG3 POP POP POP POP JUMP JUMPDEST PUSH1 0x6 SLOAD PUSH1 0x1 PUSH1 0x1 PUSH1 0xA0 SHL SUB AND CALLER EQ PUSH2 0x4E2 JUMPI PUSH1 0x40 MLOAD PUSH4 0x30CD7471 PUSH1 0xE0 SHL DUP2 MSTORE PUSH1 0x4 ADD PUSH1 0x40 MLOAD DUP1 SWAP2 SUB SWAP1 REVERT JUMPDEST PUSH2 0x3E8 DUP2 GT ISZERO PUSH2 0x505 JUMPI PUSH1 0x40 MLOAD PUSH4 0x58D620B3 PUSH1 0xE0 SHL DUP2 MSTORE PUSH1 0x4 ADD PUSH1 0x40 MLOAD DUP1 SWAP2 SUB SWAP1 REVERT JUMPDEST PUSH1 0x2 DUP1 SLOAD SWAP1 DUP3 SWAP1 SSTORE PUSH1 0x40 DUP1 MLOAD DUP3 DUP2 MSTORE PUSH1 0x20 DUP2 ADD DUP5 SWAP1 MSTORE PUSH32 0x528D9479E9F9889A87A3C30C7F7BA537E5E59C4C85A37733B16E57C62DF61302 SWAP2 ADD PUSH1 0x40 MLOAD DUP1 SWAP2 SUB SWAP1 LOG1 POP POP JUMP JUMPDEST PUSH2 0x552 PUSH2 0x1351 JUMP JUMPDEST DUP1 DUP1 ISZERO DUP1 PUSH2 0x561 JUMPI POP PUSH1 0x3 SLOAD DUP2 GT JUMPDEST ISZERO PUSH2 0x57F JUMPI PUSH1 0x40 MLOAD PUSH4 0x683267D3 PUSH1 0xE1 SHL DUP2 MSTORE PUSH1 0x4 ADD PUSH1 0x40 MLOAD DUP1 SWAP2 SUB SWAP1 REVERT JUMPDEST PUSH1 0x0 DUP3 DUP2 MSTORE PUSH1 0x4 PUSH1 0x20 MSTORE PUSH1 0x40 SWAP1 KECCAK256 DUP1 SLOAD PUSH1 0x1 PUSH1 0x1 PUSH1 0xA0 SHL SUB AND CALLER EQ PUSH2 0x5B7 JUMPI PUSH1 0x40 MLOAD PUSH4 0x6431E4C1 PUSH1 0xE1 SHL DUP2 MSTORE PUSH1 0x4 ADD PUSH1 0x40 MLOAD DUP1 SWAP2 SUB SWAP1 REVERT JUMPDEST PUSH1 0x2 PUSH1 0x3 DUP3 ADD SLOAD PUSH1 0xFF AND PUSH1 0x4 DUP2 GT ISZERO PUSH2 0x5D2 JUMPI PUSH2 0x5D2 PUSH2 0x1462 JUMP JUMPDEST EQ PUSH2 0x5F0 JUMPI PUSH1 0x40 MLOAD PUSH4 0x7A92F19 PUSH1 0xE5 SHL DUP2 MSTORE PUSH1 0x4 ADD PUSH1 0x40 MLOAD DUP1 SWAP2 SUB SWAP1 REVERT JUMPDEST PUSH1 0x0 PUSH2 0x2710 PUSH1 0x2 SLOAD DUP4 PUSH1 0x2 ADD SLOAD PUSH2 0x607 SWAP2 SWAP1 PUSH2 0x156F JUMP JUMPDEST PUSH2 0x611 SWAP2 SWAP1 PUSH2 0x1586 JUMP JUMPDEST SWAP1 POP PUSH1 0x0 DUP2 DUP4 PUSH1 0x2 ADD SLOAD PUSH2 0x625 SWAP2 SWAP1 PUSH2 0x15A8 JUMP JUMPDEST PUSH1 0x3 DUP5 DUP2 ADD DUP1 SLOAD PUSH1 0xFF NOT AND SWAP1 SWAP2 OR SWAP1 SSTORE PUSH1 0x1 DUP5 ADD DUP1 SLOAD PUSH1 0x1 PUSH1 0x1 PUSH1 0xA0 SHL SUB SWAP1 DUP2 AND PUSH1 0x0 SWAP1 DUP2 MSTORE PUSH1 0x5 PUSH1 0x20 MSTORE PUSH1 0x40 DUP1 DUP3 KECCAK256 DUP3 SWAP1 SSTORE SWAP3 SLOAD SWAP3 MLOAD PUSH4 0xA9059CBB PUSH1 0xE0 SHL DUP2 MSTORE SWAP3 DUP3 AND PUSH1 0x4 DUP5 ADD MSTORE PUSH1 0x24 DUP4 ADD DUP5 SWAP1 MSTORE SWAP3 SWAP4 POP PUSH32 0x0 AND SWAP1 PUSH4 0xA9059CBB SWAP1 PUSH1 0x44 ADD PUSH1 0x20 PUSH1 0x40 MLOAD DUP1 DUP4 SUB DUP2 PUSH1 0x0 DUP8 GAS CALL ISZERO DUP1 ISZERO PUSH2 0x6C3 JUMPI RETURNDATASIZE PUSH1 0x0 DUP1 RETURNDATACOPY RETURNDATASIZE PUSH1 0x0 REVERT JUMPDEST POP POP POP POP PUSH1 0x40 MLOAD RETURNDATASIZE PUSH1 0x1F NOT PUSH1 0x1F DUP3 ADD AND DUP3 ADD DUP1 PUSH1 0x40 MSTORE POP DUP2 ADD SWAP1 PUSH2 0x6E7 SWAP2 SWAP1 PUSH2 0x15BB JUMP JUMPDEST SWAP1 POP DUP1 PUSH2 0x707 JUMPI PUSH1 0x40 MLOAD PUSH4 0x12171D83 PUSH1 0xE3 SHL DUP2 MSTORE PUSH1 0x4 ADD PUSH1 0x40 MLOAD DUP1 SWAP2 SUB SWAP1 REVERT JUMPDEST DUP3 ISZERO PUSH2 0x7C8 JUMPI PUSH1 0x1 SLOAD PUSH1 0x40 MLOAD PUSH4 0xA9059CBB PUSH1 0xE0 SHL DUP2 MSTORE PUSH1 0x1 PUSH1 0x1 PUSH1 0xA0 SHL SUB SWAP2 DUP3 AND PUSH1 0x4 DUP3 ADD MSTORE PUSH1 0x24 DUP2 ADD DUP6 SWAP1 MSTORE PUSH1 0x0 SWAP2 PUSH32 0x0 AND SWAP1 PUSH4 0xA9059CBB SWAP1 PUSH1 0x44 ADD PUSH1 0x20 PUSH1 0x40 MLOAD DUP1 DUP4 SUB DUP2 PUSH1 0x0 DUP8 GAS CALL ISZERO DUP1 ISZERO PUSH2 0x782 JUMPI RETURNDATASIZE PUSH1 0x0 DUP1 RETURNDATACOPY RETURNDATASIZE PUSH1 0x0 REVERT JUMPDEST POP POP POP POP PUSH1 0x40 MLOAD RETURNDATASIZE PUSH1 0x1F NOT PUSH1 0x1F DUP3 ADD AND DUP3 ADD DUP1 PUSH1 0x40 MSTORE POP DUP2 ADD SWAP1 PUSH2 0x7A6 SWAP2 SWAP1 PUSH2 0x15BB JUMP JUMPDEST SWAP1 POP DUP1 PUSH2 0x7C6 JUMPI PUSH1 0x40 MLOAD PUSH4 0x12171D83 PUSH1 0xE3 SHL DUP2 MSTORE PUSH1 0x4 ADD PUSH1 0x40 MLOAD DUP1 SWAP2 SUB SWAP1 REVERT JUMPDEST POP JUMPDEST PUSH1 0x1 DUP5 ADD SLOAD PUSH1 0x40 DUP1 MLOAD DUP5 DUP2 MSTORE PUSH1 0x20 DUP2 ADD DUP7 SWAP1 MSTORE PUSH1 0x1 PUSH1 0x1 PUSH1 0xA0 SHL SUB SWAP1 SWAP3 AND SWAP2 DUP9 SWAP2 PUSH32 0xE6948F6BEA73B2B13DD161269153F528DCA531B28D65544489B767506F839191 SWAP2 ADD PUSH1 0x40 MLOAD DUP1 SWAP2 SUB SWAP1 LOG3 POP POP POP POP POP PUSH2 0x823 PUSH1 0x1 PUSH1 0x0 SSTORE JUMP JUMPDEST POP JUMP JUMPDEST DUP1 DUP1 ISZERO DUP1 PUSH2 0x835 JUMPI POP PUSH1 0x3 SLOAD DUP2 GT JUMPDEST ISZERO PUSH2 0x853 JUMPI PUSH1 0x40 MLOAD PUSH4 0x683267D3 PUSH1 0xE1 SHL DUP2 MSTORE PUSH1 0x4 ADD PUSH1 0x40 MLOAD DUP1 SWAP2 SUB SWAP1 REVERT JUMPDEST PUSH1 0x0 DUP3 DUP2 MSTORE PUSH1 0x4 PUSH1 0x20 MSTORE PUSH1 0x40 DUP2 KECCAK256 SWAP1 PUSH1 0x3 DUP3 ADD SLOAD PUSH1 0xFF AND PUSH1 0x4 DUP2 GT ISZERO PUSH2 0x87B JUMPI PUSH2 0x87B PUSH2 0x1462 JUMP JUMPDEST EQ PUSH2 0x899 JUMPI PUSH1 0x40 MLOAD PUSH4 0x7A92F19 PUSH1 0xE5 SHL DUP2 MSTORE PUSH1 0x4 ADD PUSH1 0x40 MLOAD DUP1 SWAP2 SUB SWAP1 REVERT JUMPDEST PUSH1 0x5 DUP2 ADD SLOAD ISZERO DUP1 ISZERO SWAP1 PUSH2 0x8B0 JUMPI POP DUP1 PUSH1 0x5 ADD SLOAD TIMESTAMP LT ISZERO JUMPDEST ISZERO PUSH2 0x8CE JUMPI PUSH1 0x40 MLOAD PUSH4 0x36CB7F3D PUSH1 0xE2 SHL DUP2 MSTORE PUSH1 0x4 ADD PUSH1 0x40 MLOAD DUP1 SWAP2 SUB SWAP1 REVERT JUMPDEST CALLER PUSH1 0x0 SWAP1 DUP2 MSTORE PUSH1 0x5 PUSH1 0x20 MSTORE PUSH1 0x40 SWAP1 KECCAK256 SLOAD ISZERO PUSH2 0x8FC JUMPI PUSH1 0x40 MLOAD PUSH4 0xFE860399 PUSH1 0xE0 SHL DUP2 MSTORE PUSH1 0x4 ADD PUSH1 0x40 MLOAD DUP1 SWAP2 SUB SWAP1 REVERT JUMPDEST DUP1 SLOAD PUSH1 0x1 PUSH1 0x1 PUSH1 0xA0 SHL SUB AND CALLER SUB PUSH2 0x926 JUMPI PUSH1 0x40 MLOAD PUSH4 0xE6C4247B PUSH1 0xE0 SHL DUP2 MSTORE PUSH1 0x4 ADD PUSH1 0x40 MLOAD DUP1 SWAP2 SUB SWAP1 REVERT JUMPDEST PUSH1 0x1 DUP1 DUP3 ADD DUP1 SLOAD PUSH1 0x1 PUSH1 0x1 PUSH1 0xA0 SHL SUB NOT AND CALLER OR SWAP1 SSTORE PUSH1 0x3 DUP3 ADD DUP1 SLOAD PUSH1 0xFF NOT AND DUP3 DUP1 MUL OR SWAP1 SSTORE POP TIMESTAMP PUSH1 0x7 DUP3 ADD DUP2 SWAP1 SSTORE CALLER PUSH1 0x0 DUP2 DUP2 MSTORE PUSH1 0x5 PUSH1 0x20 MSTORE PUSH1 0x40 SWAP1 DUP2 SWAP1 KECCAK256 DUP7 SWAP1 SSTORE MLOAD SWAP1 SWAP2 DUP6 SWAP2 PUSH32 0x23C972D46B3251AE358AD69FB3761EF8F5C38C5131502ED9E9BDE9B129DA9215 SWAP2 PUSH2 0x99C SWAP2 SWAP1 DUP2 MSTORE PUSH1 0x20 ADD SWAP1 JUMP JUMPDEST PUSH1 0x40 MLOAD DUP1 SWAP2 SUB SWAP1 LOG3 POP POP POP JUMP JUMPDEST PUSH1 0x0 PUSH2 0x9B3 PUSH2 0x1351 JUMP JUMPDEST DUP3 PUSH1 0x0 SUB PUSH2 0x9D4 JUMPI PUSH1 0x40 MLOAD PUSH4 0x162908E3 PUSH1 0xE1 SHL DUP2 MSTORE PUSH1 0x4 ADD PUSH1 0x40 MLOAD DUP1 SWAP2 SUB SWAP1 REVERT JUMPDEST DUP2 ISZERO DUP1 ISZERO SWAP1 PUSH2 0x9E3 JUMPI POP TIMESTAMP DUP3 GT ISZERO JUMPDEST ISZERO PUSH2 0xA01 JUMPI PUSH1 0x40 MLOAD PUSH4 0x36CB7F3D PUSH1 0xE2 SHL DUP2 MSTORE PUSH1 0x4 ADD PUSH1 0x40 MLOAD DUP1 SWAP2 SUB SWAP1 REVERT JUMPDEST PUSH1 0x40 MLOAD PUSH4 0x23B872DD PUSH1 0xE0 SHL DUP2 MSTORE CALLER PUSH1 0x4 DUP3 ADD MSTORE ADDRESS PUSH1 0x24 DUP3 ADD MSTORE PUSH1 0x44 DUP2 ADD DUP5 SWAP1 MSTORE PUSH1 0x0 SWAP1 PUSH32 0x0 PUSH1 0x1 PUSH1 0x1 PUSH1 0xA0 SHL SUB AND SWAP1 PUSH4 0x23B872DD SWAP1 PUSH1 0x64 ADD PUSH1 0x20 PUSH1 0x40 MLOAD DUP1 DUP4 SUB DUP2 PUSH1 0x0 DUP8 GAS CALL ISZERO DUP1 ISZERO PUSH2 0xA77 JUMPI RETURNDATASIZE PUSH1 0x0 DUP1 RETURNDATACOPY RETURNDATASIZE PUSH1 0x0 REVERT JUMPDEST POP POP POP POP PUSH1 0x40 MLOAD RETURNDATASIZE PUSH1 0x1F NOT PUSH1 0x1F DUP3 ADD AND DUP3 ADD DUP1 PUSH1 0x40 MSTORE POP DUP2 ADD SWAP1 PUSH2 0xA9B SWAP2 SWAP1 PUSH2 0x15BB JUMP JUMPDEST SWAP1 POP DUP1 PUSH2 0xABB JUMPI PUSH1 0x40 MLOAD PUSH4 0x12171D83 PUSH1 0xE3 SHL DUP2 MSTORE PUSH1 0x4 ADD PUSH1 0x40 MLOAD DUP1 SWAP2 SUB SWAP1 REVERT JUMPDEST PUSH1 0x3 DUP1 SLOAD SWAP1 PUSH1 0x0 PUSH2 0xACB DUP4 PUSH2 0x15DD JUMP JUMPDEST SWAP1 SWAP2 SSTORE POP POP PUSH1 0x3 DUP1 SLOAD PUSH1 0x40 DUP1 MLOAD PUSH2 0x100 DUP2 ADD DUP3 MSTORE CALLER DUP2 MSTORE PUSH1 0x0 PUSH1 0x20 DUP1 DUP4 ADD DUP3 DUP2 MSTORE DUP4 DUP6 ADD DUP12 DUP2 MSTORE PUSH1 0x60 DUP6 ADD DUP5 DUP2 MSTORE PUSH1 0x80 DUP7 ADD DUP6 SWAP1 MSTORE PUSH1 0xA0 DUP7 ADD DUP13 SWAP1 MSTORE TIMESTAMP PUSH1 0xC0 DUP8 ADD MSTORE PUSH1 0xE0 DUP7 ADD DUP6 SWAP1 MSTORE DUP8 DUP6 MSTORE PUSH1 0x4 SWAP4 DUP5 SWAP1 MSTORE SWAP6 SWAP1 SWAP4 KECCAK256 DUP5 MLOAD DUP2 SLOAD PUSH1 0x1 PUSH1 0x1 PUSH1 0xA0 SHL SUB NOT SWAP1 DUP2 AND PUSH1 0x1 PUSH1 0x1 PUSH1 0xA0 SHL SUB SWAP3 DUP4 AND OR DUP4 SSTORE SWAP3 MLOAD PUSH1 0x1 DUP1 DUP5 ADD DUP1 SLOAD SWAP1 SWAP6 AND SWAP2 SWAP1 SWAP3 AND OR SWAP1 SWAP3 SSTORE SWAP3 MLOAD PUSH1 0x2 DUP5 ADD SSTORE SWAP4 MLOAD SWAP6 DUP3 ADD DUP1 SLOAD SWAP6 SWAP9 POP SWAP3 SWAP6 SWAP2 SWAP5 SWAP2 SWAP4 PUSH1 0xFF NOT SWAP1 SWAP3 AND SWAP2 SWAP1 DUP5 SWAP1 DUP2 GT ISZERO PUSH2 0xB83 JUMPI PUSH2 0xB83 PUSH2 0x1462 JUMP JUMPDEST MUL OR SWAP1 SSTORE POP PUSH1 0x80 DUP3 ADD MLOAD PUSH1 0x4 DUP3 ADD SSTORE PUSH1 0xA0 DUP3 ADD MLOAD PUSH1 0x5 DUP3 ADD SSTORE PUSH1 0xC0 DUP3 ADD MLOAD PUSH1 0x6 DUP3 ADD SSTORE PUSH1 0xE0 SWAP1 SWAP2 ADD MLOAD PUSH1 0x7 SWAP1 SWAP2 ADD SSTORE PUSH1 0x40 DUP1 MLOAD DUP6 DUP2 MSTORE PUSH1 0x20 DUP2 ADD DUP6 SWAP1 MSTORE CALLER SWAP2 DUP5 SWAP2 PUSH32 0xC0718C24656EC3133A0A8BD25E68EBD7C25A017FDE29DD1A67FF3F40F487112D SWAP2 ADD PUSH1 0x40 MLOAD DUP1 SWAP2 SUB SWAP1 LOG3 POP PUSH2 0xBFA PUSH1 0x1 PUSH1 0x0 SSTORE JUMP JUMPDEST SWAP3 SWAP2 POP POP JUMP JUMPDEST DUP1 DUP1 ISZERO DUP1 PUSH2 0xC0F JUMPI POP PUSH1 0x3 SLOAD DUP2 GT JUMPDEST ISZERO PUSH2 0xC2D JUMPI PUSH1 0x40 MLOAD PUSH4 0x683267D3 PUSH1 0xE1 SHL DUP2 MSTORE PUSH1 0x4 ADD PUSH1 0x40 MLOAD DUP1 SWAP2 SUB SWAP1 REVERT JUMPDEST PUSH1 0x0 DUP3 DUP2 MSTORE PUSH1 0x4 PUSH1 0x20 MSTORE PUSH1 0x40 SWAP1 KECCAK256 PUSH1 0x1 DUP2 ADD SLOAD PUSH1 0x1 PUSH1 0x1 PUSH1 0xA0 SHL SUB AND CALLER EQ PUSH2 0xC68 JUMPI PUSH1 0x40 MLOAD PUSH4 0xF7224395 PUSH1 0xE0 SHL DUP2 MSTORE PUSH1 0x4 ADD PUSH1 0x40 MLOAD DUP1 SWAP2 SUB SWAP1 REVERT JUMPDEST PUSH1 0x1 PUSH1 0x3 DUP3 ADD SLOAD PUSH1 0xFF AND PUSH1 0x4 DUP2 GT ISZERO PUSH2 0xC83 JUMPI PUSH2 0xC83 PUSH2 0x1462 JUMP JUMPDEST EQ PUSH2 0xCA1 JUMPI PUSH1 0x40 MLOAD PUSH4 0x7A92F19 PUSH1 0xE5 SHL DUP2 MSTORE PUSH1 0x4 ADD PUSH1 0x40 MLOAD DUP1 SWAP2 SUB SWAP1 REVERT JUMPDEST PUSH1 0x1 DUP2 ADD DUP1 SLOAD PUSH1 0x1 PUSH1 0x1 PUSH1 0xA0 SHL SUB NOT AND SWAP1 SSTORE PUSH1 0x3 DUP2 ADD DUP1 SLOAD PUSH1 0xFF NOT AND SWAP1 SSTORE PUSH1 0x0 PUSH1 0x7 DUP3 ADD DUP2 SWAP1 SSTORE CALLER DUP1 DUP3 MSTORE PUSH1 0x5 PUSH1 0x20 MSTORE PUSH1 0x40 DUP1 DUP4 KECCAK256 DUP4 SWAP1 SSTORE MLOAD SWAP1 SWAP2 DUP6 SWAP2 PUSH32 0x909D0309E792D4F17972CEF6C4067BFD0B5FA112DD3AA00415FBAC21AFA3EB3E SWAP2 SWAP1 LOG3 POP POP POP JUMP JUMPDEST DUP3 DUP1 ISZERO DUP1 PUSH2 0xD16 JUMPI POP PUSH1 0x3 SLOAD DUP2 GT JUMPDEST ISZERO PUSH2 0xD34 JUMPI PUSH1 0x40 MLOAD PUSH4 0x683267D3 PUSH1 0xE1 SHL DUP2 MSTORE PUSH1 0x4 ADD PUSH1 0x40 MLOAD DUP1 SWAP2 SUB SWAP1 REVERT JUMPDEST PUSH1 0x0 DUP5 DUP2 MSTORE PUSH1 0x4 PUSH1 0x20 MSTORE PUSH1 0x40 SWAP1 KECCAK256 DUP1 SLOAD PUSH1 0x1 PUSH1 0x1 PUSH1 0xA0 SHL SUB AND CALLER EQ PUSH2 0xD6C JUMPI PUSH1 0x40 MLOAD PUSH4 0x6431E4C1 PUSH1 0xE1 SHL DUP2 MSTORE PUSH1 0x4 ADD PUSH1 0x40 MLOAD DUP1 SWAP2 SUB SWAP1 REVERT JUMPDEST PUSH1 0x2 PUSH1 0x3 DUP3 ADD SLOAD PUSH1 0xFF AND PUSH1 0x4 DUP2 GT ISZERO PUSH2 0xD87 JUMPI PUSH2 0xD87 PUSH2 0x1462 JUMP JUMPDEST EQ PUSH2 0xDA5 JUMPI PUSH1 0x40 MLOAD PUSH4 0x7A92F19 PUSH1 0xE5 SHL DUP2 MSTORE PUSH1 0x4 ADD PUSH1 0x40 MLOAD DUP1 SWAP2 SUB SWAP1 REVERT JUMPDEST PUSH1 0x3 DUP2 ADD DUP1 SLOAD PUSH1 0xFF NOT AND PUSH1 0x1 SWAP1 DUP2 OR SWAP1 SWAP2 SSTORE PUSH1 0x0 PUSH1 0x4 DUP4 ADD SSTORE DUP2 ADD SLOAD PUSH1 0x40 MLOAD PUSH1 0x1 PUSH1 0x1 PUSH1 0xA0 SHL SUB SWAP1 SWAP2 AND SWAP1 DUP7 SWAP1 PUSH32 0xFB1F2B2D59E15C4D9793571C3DF2FC8AA0FED8C4308B8F71FF5A77678E571E72 SWAP1 PUSH2 0xE01 SWAP1 DUP9 SWAP1 DUP9 SWAP1 PUSH2 0x15F6 JUMP JUMPDEST PUSH1 0x40 MLOAD DUP1 SWAP2 SUB SWAP1 LOG3 POP POP POP POP POP JUMP JUMPDEST PUSH1 0x0 DUP2 DUP1 ISZERO DUP1 PUSH2 0xE21 JUMPI POP PUSH1 0x3 SLOAD DUP2 GT JUMPDEST ISZERO PUSH2 0xE3F JUMPI PUSH1 0x40 MLOAD PUSH4 0x683267D3 PUSH1 0xE1 SHL DUP2 MSTORE PUSH1 0x4 ADD PUSH1 0x40 MLOAD DUP1 SWAP2 SUB SWAP1 REVERT JUMPDEST PUSH1 0x0 DUP4 DUP2 MSTORE PUSH1 0x4 PUSH1 0x20 MSTORE PUSH1 0x40 SWAP1 KECCAK256 PUSH1 0x5 DUP2 ADD SLOAD ISZERO DUP1 ISZERO SWAP1 PUSH2 0xE64 JUMPI POP DUP1 PUSH1 0x5 ADD SLOAD TIMESTAMP LT ISZERO JUMPDEST SWAP5 SWAP4 POP POP POP POP JUMP JUMPDEST PUSH2 0xE74 PUSH2 0x1351 JUMP JUMPDEST DUP1 DUP1 ISZERO DUP1 PUSH2 0xE83 JUMPI POP PUSH1 0x3 SLOAD DUP2 GT JUMPDEST ISZERO PUSH2 0xEA1 JUMPI PUSH1 0x40 MLOAD PUSH4 0x683267D3 PUSH1 0xE1 SHL DUP2 MSTORE PUSH1 0x4 ADD PUSH1 0x40 MLOAD DUP1 SWAP2 SUB SWAP1 REVERT JUMPDEST PUSH1 0x0 DUP3 DUP2 MSTORE PUSH1 0x4 PUSH1 0x20 MSTORE PUSH1 0x40 SWAP1 KECCAK256 DUP1 SLOAD PUSH1 0x1 PUSH1 0x1 PUSH1 0xA0 SHL SUB AND CALLER EQ PUSH2 0xED9 JUMPI PUSH1 0x40 MLOAD PUSH4 0x6431E4C1 PUSH1 0xE1 SHL DUP2 MSTORE PUSH1 0x4 ADD PUSH1 0x40 MLOAD DUP1 SWAP2 SUB SWAP1 REVERT JUMPDEST PUSH1 0x3 DUP1 DUP3 ADD SLOAD PUSH1 0xFF AND PUSH1 0x4 DUP2 GT ISZERO PUSH2 0xEF3 JUMPI PUSH2 0xEF3 PUSH2 0x1462 JUMP JUMPDEST EQ DUP1 PUSH2 0xF17 JUMPI POP PUSH1 0x4 PUSH1 0x3 DUP3 ADD SLOAD PUSH1 0xFF AND PUSH1 0x4 DUP2 GT ISZERO PUSH2 0xF15 JUMPI PUSH2 0xF15 PUSH2 0x1462 JUMP JUMPDEST EQ JUMPDEST ISZERO PUSH2 0xF35 JUMPI PUSH1 0x40 MLOAD PUSH4 0x7A92F19 PUSH1 0xE5 SHL DUP2 MSTORE PUSH1 0x4 ADD PUSH1 0x40 MLOAD DUP1 SWAP2 SUB SWAP1 REVERT JUMPDEST PUSH1 0x1 PUSH1 0x3 DUP3 ADD SLOAD PUSH1 0xFF AND PUSH1 0x4 DUP2 GT ISZERO PUSH2 0xF50 JUMPI PUSH2 0xF50 PUSH2 0x1462 JUMP JUMPDEST EQ DUP1 PUSH2 0xF74 JUMPI POP PUSH1 0x2 PUSH1 0x3 DUP3 ADD SLOAD PUSH1 0xFF AND PUSH1 0x4 DUP2 GT ISZERO PUSH2 0xF72 JUMPI PUSH2 0xF72 PUSH2 0x1462 JUMP JUMPDEST EQ JUMPDEST ISZERO PUSH2 0xFAB JUMPI PUSH1 0x5 DUP2 ADD SLOAD ISZERO DUP1 PUSH2 0xF8D JUMPI POP DUP1 PUSH1 0x5 ADD SLOAD TIMESTAMP LT JUMPDEST ISZERO PUSH2 0xFAB JUMPI PUSH1 0x40 MLOAD PUSH4 0x7BD500C9 PUSH1 0xE0 SHL DUP2 MSTORE PUSH1 0x4 ADD PUSH1 0x40 MLOAD DUP1 SWAP2 SUB SWAP1 REVERT JUMPDEST PUSH1 0x2 DUP2 ADD SLOAD PUSH1 0x1 DUP3 ADD SLOAD PUSH1 0x1 PUSH1 0x1 PUSH1 0xA0 SHL SUB AND ISZERO PUSH2 0xFE1 JUMPI PUSH1 0x1 DUP3 ADD SLOAD PUSH1 0x1 PUSH1 0x1 PUSH1 0xA0 SHL SUB AND PUSH1 0x0 SWAP1 DUP2 MSTORE PUSH1 0x5 PUSH1 0x20 MSTORE PUSH1 0x40 DUP2 KECCAK256 SSTORE JUMPDEST PUSH1 0x3 DUP3 ADD DUP1 SLOAD PUSH1 0x4 SWAP2 SWAP1 PUSH1 0xFF NOT AND PUSH1 0x1 DUP4 MUL OR SWAP1 SSTORE POP DUP2 SLOAD PUSH1 0x40 MLOAD PUSH4 0xA9059CBB PUSH1 0xE0 SHL DUP2 MSTORE PUSH1 0x1 PUSH1 0x1 PUSH1 0xA0 SHL SUB SWAP2 DUP3 AND PUSH1 0x4 DUP3 ADD MSTORE PUSH1 0x24 DUP2 ADD DUP4 SWAP1 MSTORE PUSH1 0x0 SWAP2 PUSH32 0x0 AND SWAP1 PUSH4 0xA9059CBB SWAP1 PUSH1 0x44 ADD PUSH1 0x20 PUSH1 0x40 MLOAD DUP1 DUP4 SUB DUP2 PUSH1 0x0 DUP8 GAS CALL ISZERO DUP1 ISZERO PUSH2 0x106B JUMPI RETURNDATASIZE PUSH1 0x0 DUP1 RETURNDATACOPY RETURNDATASIZE PUSH1 0x0 REVERT JUMPDEST POP POP POP POP PUSH1 0x40 MLOAD RETURNDATASIZE PUSH1 0x1F NOT PUSH1 0x1F DUP3 ADD AND DUP3 ADD DUP1 PUSH1 0x40 MSTORE POP DUP2 ADD SWAP1 PUSH2 0x108F SWAP2 SWAP1 PUSH2 0x15BB JUMP JUMPDEST SWAP1 POP DUP1 PUSH2 0x10AF JUMPI PUSH1 0x40 MLOAD PUSH4 0x12171D83 PUSH1 0xE3 SHL DUP2 MSTORE PUSH1 0x4 ADD PUSH1 0x40 MLOAD DUP1 SWAP2 SUB SWAP1 REVERT JUMPDEST PUSH1 0x40 MLOAD DUP3 DUP2 MSTORE CALLER SWAP1 DUP7 SWAP1 PUSH32 0xB9670BF4F2273686F771C9AB65309436DF5ED75AFA63EEFEC8B67640D8BCF72C SWAP1 PUSH1 0x20 ADD PUSH1 0x40 MLOAD DUP1 SWAP2 SUB SWAP1 LOG3 POP POP POP POP PUSH2 0x823 PUSH1 0x1 PUSH1 0x0 SSTORE JUMP JUMPDEST PUSH1 0x40 DUP1 MLOAD PUSH2 0x100 DUP2 ADD DUP3 MSTORE PUSH1 0x0 DUP1 DUP3 MSTORE PUSH1 0x20 DUP3 ADD DUP2 SWAP1 MSTORE SWAP2 DUP2 ADD DUP3 SWAP1 MSTORE PUSH1 0x60 DUP2 ADD DUP3 SWAP1 MSTORE PUSH1 0x80 DUP2 ADD DUP3 SWAP1 MSTORE PUSH1 0xA0 DUP2 ADD DUP3 SWAP1 MSTORE PUSH1 0xC0 DUP2 ADD DUP3 SWAP1 MSTORE PUSH1 0xE0 DUP2 ADD SWAP2 SWAP1 SWAP2 MSTORE DUP2 DUP1 ISZERO DUP1 PUSH2 0x1144 JUMPI POP PUSH1 0x3 SLOAD DUP2 GT JUMPDEST ISZERO PUSH2 0x1162 JUMPI PUSH1 0x40 MLOAD PUSH4 0x683267D3 PUSH1 0xE1 SHL DUP2 MSTORE PUSH1 0x4 ADD PUSH1 0x40 MLOAD DUP1 SWAP2 SUB SWAP1 REVERT JUMPDEST PUSH1 0x0 DUP4 DUP2 MSTORE PUSH1 0x4 PUSH1 0x20 DUP2 DUP2 MSTORE PUSH1 0x40 SWAP3 DUP4 SWAP1 KECCAK256 DUP4 MLOAD PUSH2 0x100 DUP2 ADD DUP6 MSTORE DUP2 SLOAD PUSH1 0x1 PUSH1 0x1 PUSH1 0xA0 SHL SUB SWAP1 DUP2 AND DUP3 MSTORE PUSH1 0x1 DUP4 ADD SLOAD AND SWAP3 DUP2 ADD SWAP3 SWAP1 SWAP3 MSTORE PUSH1 0x2 DUP2 ADD SLOAD SWAP4 DUP3 ADD SWAP4 SWAP1 SWAP4 MSTORE PUSH1 0x3 DUP4 ADD SLOAD SWAP1 SWAP3 SWAP2 PUSH1 0x60 DUP5 ADD SWAP2 PUSH1 0xFF AND SWAP1 DUP2 GT ISZERO PUSH2 0x11C5 JUMPI PUSH2 0x11C5 PUSH2 0x1462 JUMP JUMPDEST PUSH1 0x4 DUP2 GT ISZERO PUSH2 0x11D6 JUMPI PUSH2 0x11D6 PUSH2 0x1462 JUMP JUMPDEST DUP2 MSTORE PUSH1 0x4 DUP3 ADD SLOAD PUSH1 0x20 DUP3 ADD MSTORE PUSH1 0x5 DUP3 ADD SLOAD PUSH1 0x40 DUP3 ADD MSTORE PUSH1 0x6 DUP3 ADD SLOAD PUSH1 0x60 DUP3 ADD MSTORE PUSH1 0x7 SWAP1 SWAP2 ADD SLOAD PUSH1 0x80 SWAP1 SWAP2 ADD MSTORE SWAP4 SWAP3 POP POP POP JUMP JUMPDEST PUSH1 0x6 SLOAD PUSH1 0x1 PUSH1 0x1 PUSH1 0xA0 SHL SUB AND CALLER EQ PUSH2 0x1234 JUMPI PUSH1 0x40 MLOAD PUSH4 0x30CD7471 PUSH1 0xE0 SHL DUP2 MSTORE PUSH1 0x4 ADD PUSH1 0x40 MLOAD DUP1 SWAP2 SUB SWAP1 REVERT JUMPDEST PUSH1 0x1 PUSH1 0x1 PUSH1 0xA0 SHL SUB DUP2 AND PUSH2 0x125B JUMPI PUSH1 0x40 MLOAD PUSH4 0xE6C4247B PUSH1 0xE0 SHL DUP2 MSTORE PUSH1 0x4 ADD PUSH1 0x40 MLOAD DUP1 SWAP2 SUB SWAP1 REVERT JUMPDEST PUSH1 0x1 DUP1 SLOAD PUSH1 0x1 PUSH1 0x1 PUSH1 0xA0 SHL SUB DUP4 DUP2 AND PUSH1 0x1 PUSH1 0x1 PUSH1 0xA0 SHL SUB NOT DUP4 AND DUP2 OR SWAP1 SWAP4 SSTORE PUSH1 0x40 MLOAD SWAP2 AND SWAP2 SWAP1 DUP3 SWAP1 PUSH32 0x4AB5BE82436D353E61CA18726E984E561F5C1CC7C6D38B29D2553C790434705A SWAP1 PUSH1 0x0 SWAP1 LOG3 POP POP JUMP JUMPDEST PUSH1 0x6 SLOAD PUSH1 0x1 PUSH1 0x1 PUSH1 0xA0 SHL SUB AND CALLER EQ PUSH2 0x12D8 JUMPI PUSH1 0x40 MLOAD PUSH4 0x30CD7471 PUSH1 0xE0 SHL DUP2 MSTORE PUSH1 0x4 ADD PUSH1 0x40 MLOAD DUP1 SWAP2 SUB SWAP1 REVERT JUMPDEST PUSH1 0x1 PUSH1 0x1 PUSH1 0xA0 SHL SUB DUP2 AND PUSH2 0x12FF JUMPI PUSH1 0x40 MLOAD PUSH4 0xE6C4247B PUSH1 0xE0 SHL DUP2 MSTORE PUSH1 0x4 ADD PUSH1 0x40 MLOAD DUP1 SWAP2 SUB SWAP1 REVERT JUMPDEST PUSH1 0x6 DUP1 SLOAD PUSH1 0x1 PUSH1 0x1 PUSH1 0xA0 SHL SUB DUP4 DUP2 AND PUSH1 0x1 PUSH1 0x1 PUSH1 0xA0 SHL SUB NOT DUP4 AND DUP2 OR SWAP1 SWAP4 SSTORE PUSH1 0x40 MLOAD SWAP2 AND SWAP2 SWAP1 DUP3 SWAP1 PUSH32 0x8BE0079C531659141344CD1FD0A4F28419497F9722A3DAAFE3B4186F6B6457E0 SWAP1 PUSH1 0x0 SWAP1 LOG3 POP POP JUMP JUMPDEST PUSH1 0x2 PUSH1 0x0 SLOAD SUB PUSH2 0x1374 JUMPI PUSH1 0x40 MLOAD PUSH4 0x3EE5AEB5 PUSH1 0xE0 SHL DUP2 MSTORE PUSH1 0x4 ADD PUSH1 0x40 MLOAD DUP1 SWAP2 SUB SWAP1 REVERT JUMPDEST PUSH1 0x2 PUSH1 0x0 SSTORE JUMP JUMPDEST PUSH1 0x0 DUP1 PUSH1 0x40 DUP4 DUP6 SUB SLT ISZERO PUSH2 0x138E JUMPI PUSH1 0x0 DUP1 REVERT JUMPDEST POP POP DUP1 CALLDATALOAD SWAP3 PUSH1 0x20 SWAP1 SWAP2 ADD CALLDATALOAD SWAP2 POP JUMP JUMPDEST PUSH1 0x0 PUSH1 0x20 DUP3 DUP5 SUB SLT ISZERO PUSH2 0x13AF JUMPI PUSH1 0x0 DUP1 REVERT JUMPDEST POP CALLDATALOAD SWAP2 SWAP1 POP JUMP JUMPDEST PUSH1 0x0 PUSH1 0x20 DUP3 DUP5 SUB SLT ISZERO PUSH2 0x13C8 JUMPI PUSH1 0x0 DUP1 REVERT JUMPDEST DUP2 CALLDATALOAD PUSH1 0x1 PUSH1 0x1 PUSH1 0xA0 SHL SUB DUP2 AND DUP2 EQ PUSH2 0x13DF JUMPI PUSH1 0x0 DUP1 REVERT JUMPDEST SWAP4 SWAP3 POP POP POP JUMP JUMPDEST PUSH1 0x0 DUP1 PUSH1 0x0 PUSH1 0x40 DUP5 DUP7 SUB SLT ISZERO PUSH2 0x13FB JUMPI PUSH1 0x0 DUP1 REVERT JUMPDEST DUP4 CALLDATALOAD SWAP3 POP PUSH1 0x20 DUP5 ADD CALLDATALOAD PUSH8 0xFFFFFFFFFFFFFFFF DUP1 DUP3 GT ISZERO PUSH2 0x141A JUMPI PUSH1 0x0 DUP1 REVERT JUMPDEST DUP2 DUP7 ADD SWAP2 POP DUP7 PUSH1 0x1F DUP4 ADD SLT PUSH2 0x142E JUMPI PUSH1 0x0 DUP1 REVERT JUMPDEST DUP2 CALLDATALOAD DUP2 DUP2 GT ISZERO PUSH2 0x143D JUMPI PUSH1 0x0 DUP1 REVERT JUMPDEST DUP8 PUSH1 0x20 DUP3 DUP6 ADD ADD GT ISZERO PUSH2 0x144F JUMPI PUSH1 0x0 DUP1 REVERT JUMPDEST PUSH1 0x20 DUP4 ADD SWAP5 POP DUP1 SWAP4 POP POP POP POP SWAP3 POP SWAP3 POP SWAP3 JUMP JUMPDEST PUSH4 0x4E487B71 PUSH1 0xE0 SHL PUSH1 0x0 MSTORE PUSH1 0x21 PUSH1 0x4 MSTORE PUSH1 0x24 PUSH1 0x0 REVERT JUMPDEST PUSH1 0x5 DUP2 LT PUSH2 0x1496 JUMPI PUSH4 0x4E487B71 PUSH1 0xE0 SHL PUSH1 0x0 MSTORE PUSH1 0x21 PUSH1 0x4 MSTORE PUSH1 0x24 PUSH1 0x0 REVERT JUMPDEST SWAP1 MSTORE JUMP JUMPDEST PUSH1 0x1 PUSH1 0x1 PUSH1 0xA0 SHL SUB DUP10 DUP2 AND DUP3 MSTORE DUP9 AND PUSH1 0x20 DUP3 ADD MSTORE PUSH1 0x40 DUP2 ADD DUP8 SWAP1 MSTORE PUSH2 0x100 DUP2 ADD PUSH2 0x14C7 PUSH1 0x60 DUP4 ADD DUP9 PUSH2 0x1478 JUMP JUMPDEST DUP6 PUSH1 0x80 DUP4 ADD MSTORE DUP5 PUSH1 0xA0 DUP4 ADD MSTORE DUP4 PUSH1 0xC0 DUP4 ADD MSTORE DUP3 PUSH1 0xE0 DUP4 ADD MSTORE SWAP10 SWAP9 POP POP POP POP POP POP POP POP POP JUMP JUMPDEST DUP2 MLOAD PUSH1 0x1 PUSH1 0x1 PUSH1 0xA0 SHL SUB SWAP1 DUP2 AND DUP3 MSTORE PUSH1 0x20 DUP1 DUP5 ADD MLOAD SWAP1 SWAP2 AND SWAP1 DUP3 ADD MSTORE PUSH1 0x40 DUP1 DUP4 ADD MLOAD SWAP1 DUP3 ADD MSTORE PUSH1 0x60 DUP1 DUP4 ADD MLOAD PUSH2 0x100 DUP4 ADD SWAP2 PUSH2 0x152A SWAP1 DUP5 ADD DUP3 PUSH2 0x1478 JUMP JUMPDEST POP PUSH1 0x80 DUP4 ADD MLOAD PUSH1 0x80 DUP4 ADD MSTORE PUSH1 0xA0 DUP4 ADD MLOAD PUSH1 0xA0 DUP4 ADD MSTORE PUSH1 0xC0 DUP4 ADD MLOAD PUSH1 0xC0 DUP4 ADD MSTORE PUSH1 0xE0 DUP4 ADD MLOAD PUSH1 0xE0 DUP4 ADD MSTORE SWAP3 SWAP2 POP POP JUMP JUMPDEST PUSH4 0x4E487B71 PUSH1 0xE0 SHL PUSH1 0x0 MSTORE PUSH1 0x11 PUSH1 0x4 MSTORE PUSH1 0x24 PUSH1 0x0 REVERT JUMPDEST DUP1 DUP3 MUL DUP2 ISZERO DUP3 DUP3 DIV DUP5 EQ OR PUSH2 0xBFA JUMPI PUSH2 0xBFA PUSH2 0x1559 JUMP JUMPDEST PUSH1 0x0 DUP3 PUSH2 0x15A3 JUMPI PUSH4 0x4E487B71 PUSH1 0xE0 SHL PUSH1 0x0 MSTORE PUSH1 0x12 PUSH1 0x4 MSTORE PUSH1 0x24 PUSH1 0x0 REVERT JUMPDEST POP DIV SWAP1 JUMP JUMPDEST DUP2 DUP2 SUB DUP2 DUP2 GT ISZERO PUSH2 0xBFA JUMPI PUSH2 0xBFA PUSH2 0x1559 JUMP JUMPDEST PUSH1 0x0 PUSH1 0x20 DUP3 DUP5 SUB SLT ISZERO PUSH2 0x15CD JUMPI PUSH1 0x0 DUP1 REVERT JUMPDEST DUP2 MLOAD DUP1 ISZERO ISZERO DUP2 EQ PUSH2 0x13DF JUMPI PUSH1 0x0 DUP1 REVERT JUMPDEST PUSH1 0x0 PUSH1 0x1 DUP3 ADD PUSH2 0x15EF JUMPI PUSH2 0x15EF PUSH2 0x1559 JUMP JUMPDEST POP PUSH1 0x1 ADD SWAP1 JUMP JUMPDEST PUSH1 0x20 DUP2 MSTORE DUP2 PUSH1 0x20 DUP3 ADD MSTORE DUP2 DUP4 PUSH1 0x40 DUP4 ADD CALLDATACOPY PUSH1 0x0 DUP2 DUP4 ADD PUSH1 0x40 SWAP1 DUP2 ADD SWAP2 SWAP1 SWAP2 MSTORE PUSH1 0x1F SWAP1 SWAP3 ADD PUSH1 0x1F NOT AND ADD ADD SWAP2 SWAP1 POP JUMP INVALID LOG2 PUSH5 0x6970667358 0x22 SLT KECCAK256 0xFB 0xE3 SWAP6 SWAP8 SWAP4 0xF6 0x1E 0x29 0x4D MLOAD BLOBBASEFEE CREATE2 DUP7 0xD7 DUP5 EXTCODEHASH 0xCA MSIZE 0xE5 DIV SELFDESTRUCT INVALID BLOCKHASH LOG3 0x25 TSTORE 0xE0 PUSH29 0xD4A6E70C64736F6C634300081800330000000000000000000000000000 "},"methodIdentifiers":{"BPS_DENOMINATOR()":"e1a45218","MAX_FEE_BPS()":"d55be8c6","activeClaim(address)":"2eaf8a2b","approveWork(uint256)":"3d01e0fa","bounties(uint256)":"dc2f8744","bountyCount()":"3e362c96","cancelBounty(uint256)":"e5e5dff1","claimBounty(uint256)":"44021ad7","createBounty(uint256,uint256)":"7925d420","getActiveClaim(address)":"4c31308c","getBounty(uint256)":"ee8c4bbf","isExpired(uint256)":"d9548e53","owner()":"8da5cb5b","platformFeeBps()":"22dcd13e","rejectWork(uint256,string)":"d7ec40ee","releaseClaim(uint256)":"a8bde4eb","setPlatformFee(uint256)":"12e8e2c3","setTreasury(address)":"f0f44260","submitWork(uint256,bytes32)":"0a9eeded","transferOwnership(address)":"f2fde38b","treasury()":"61d027b3","usdc()":"3e413bee"}}}}}