{
  "_format": "hh-sol-artifact-1",
  "contractName": "SnapBountyEscrow",
  "sourceName": "src/SnapBountyEscrow.sol",
  "abi": [
    {
      "inputs": [
        {
          "internalType": "address",
          "name": "_usdc",
          "type": "address"
        },
        {
          "internalType": "address",
          "name": "_treasury",
          "type": "address"
        },
        {
          "internalType": "uint256",
          "name": "_platformFeeBps",
          "type": "uint256"
        }
      ],
      "stateMutability": "nonpayable",
      "type": "constructor"
    },
    {
      "inputs": [],
      "name": "AlreadyHasActiveClaim",
      "type": "error"
    },
    {
      "inputs": [],
      "name": "BountyExpired",
      "type": "error"
    },
    {
      "inputs": [],
      "name": "BountyNotExpired",
      "type": "error"
    },
    {
      "inputs": [],
      "name": "InvalidAddress",
      "type": "error"
    },
    {
      "inputs": [],
      "name": "InvalidAmount",
      "type": "error"
    },
    {
      "inputs": [],
      "name": "InvalidBountyId",
      "type": "error"
    },
    {
      "inputs": [],
      "name": "InvalidFee",
      "type": "error"
    },
    {
      "inputs": [],
      "name": "InvalidStatus",
      "type": "error"
    },
    {
      "inputs": [],
      "name": "NoActiveClaim",
      "type": "error"
    },
    {
      "inputs": [],
      "name": "NotBountyCreator",
      "type": "error"
    },
    {
      "inputs": [],
      "name": "NotBountyHunter",
      "type": "error"
    },
    {
      "inputs": [],
      "name": "NotOwner",
      "type": "error"
    },
    {
      "inputs": [],
      "name": "ReentrancyGuardReentrantCall",
      "type": "error"
    },
    {
      "inputs": [],
      "name": "TransferFailed",
      "type": "error"
    },
    {
      "anonymous": false,
      "inputs": [
        {
          "indexed": true,
          "internalType": "uint256",
          "name": "bountyId",
          "type": "uint256"
        },
        {
          "indexed": true,
          "internalType": "address",
          "name": "creator",
          "type": "address"
        },
        {
          "indexed": false,
          "internalType": "uint256",
          "name": "refundAmount",
          "type": "uint256"
        }
      ],
      "name": "BountyCancelled",
      "type": "event"
    },
    {
      "anonymous": false,
      "inputs": [
        {
          "indexed": true,
          "internalType": "uint256",
          "name": "bountyId",
          "type": "uint256"
        },
        {
          "indexed": true,
          "internalType": "address",
          "name": "hunter",
          "type": "address"
        },
        {
          "indexed": false,
          "internalType": "uint256",
          "name": "claimedAt",
          "type": "uint256"
        }
      ],
      "name": "BountyClaimed",
      "type": "event"
    },
    {
      "anonymous": false,
      "inputs": [
        {
          "indexed": true,
          "internalType": "uint256",
          "name": "bountyId",
          "type": "uint256"
        },
        {
          "indexed": true,
          "internalType": "address",
          "name": "creator",
          "type": "address"
        },
        {
          "indexed": false,
          "internalType": "uint256",
          "name": "reward",
          "type": "uint256"
        },
        {
          "indexed": false,
          "internalType": "uint256",
          "name": "deadline",
          "type": "uint256"
        }
      ],
      "name": "BountyCreated",
      "type": "event"
    },
    {
      "anonymous": false,
      "inputs": [
        {
          "indexed": true,
          "internalType": "uint256",
          "name": "bountyId",
          "type": "uint256"
        },
        {
          "indexed": true,
          "internalType": "address",
          "name": "hunter",
          "type": "address"
        }
      ],
      "name": "ClaimReleased",
      "type": "event"
    },
    {
      "anonymous": false,
      "inputs": [
        {
          "indexed": false,
          "internalType": "uint256",
          "name": "oldFee",
          "type": "uint256"
        },
        {
          "indexed": false,
          "internalType": "uint256",
          "name": "newFee",
          "type": "uint256"
        }
      ],
      "name": "FeeUpdated",
      "type": "event"
    },
    {
      "anonymous": false,
      "inputs": [
        {
          "indexed": true,
          "internalType": "address",
          "name": "previousOwner",
          "type": "address"
        },
        {
          "indexed": true,
          "internalType": "address",
          "name": "newOwner",
          "type": "address"
        }
      ],
      "name": "OwnershipTransferred",
      "type": "event"
    },
    {
      "anonymous": false,
      "inputs": [
        {
          "indexed": true,
          "internalType": "address",
          "name": "oldTreasury",
          "type": "address"
        },
        {
          "indexed": true,
          "internalType": "address",
          "name": "newTreasury",
          "type": "address"
        }
      ],
      "name": "TreasuryUpdated",
      "type": "event"
    },
    {
      "anonymous": false,
      "inputs": [
        {
          "indexed": true,
          "internalType": "uint256",
          "name": "bountyId",
          "type": "uint256"
        },
        {
          "indexed": true,
          "internalType": "address",
          "name": "hunter",
          "type": "address"
        },
        {
          "indexed": false,
          "internalType": "uint256",
          "name": "payout",
          "type": "uint256"
        },
        {
          "indexed": false,
          "internalType": "uint256",
          "name": "fee",
          "type": "uint256"
        }
      ],
      "name": "WorkApproved",
      "type": "event"
    },
    {
      "anonymous": false,
      "inputs": [
        {
          "indexed": true,
          "internalType": "uint256",
          "name": "bountyId",
          "type": "uint256"
        },
        {
          "indexed": true,
          "internalType": "address",
          "name": "hunter",
          "type": "address"
        },
        {
          "indexed": false,
          "internalType": "string",
          "name": "reason",
          "type": "string"
        }
      ],
      "name": "WorkRejected",
      "type": "event"
    },
    {
      "anonymous": false,
      "inputs": [
        {
          "indexed": true,
          "internalType": "uint256",
          "name": "bountyId",
          "type": "uint256"
        },
        {
          "indexed": true,
          "internalType": "address",
          "name": "hunter",
          "type": "address"
        },
        {
          "indexed": false,
          "internalType": "bytes32",
          "name": "proofHash",
          "type": "bytes32"
        }
      ],
      "name": "WorkSubmitted",
      "type": "event"
    },
    {
      "inputs": [],
      "name": "BPS_DENOMINATOR",
      "outputs": [
        {
          "internalType": "uint256",
          "name": "",
          "type": "uint256"
        }
      ],
      "stateMutability": "view",
      "type": "function"
    },
    {
      "inputs": [],
      "name": "MAX_FEE_BPS",
      "outputs": [
        {
          "internalType": "uint256",
          "name": "",
          "type": "uint256"
        }
      ],
      "stateMutability": "view",
      "type": "function"
    },
    {
      "inputs": [
        {
          "internalType": "address",
          "name": "",
          "type": "address"
        }
      ],
      "name": "activeClaim",
      "outputs": [
        {
          "internalType": "uint256",
          "name": "",
          "type": "uint256"
        }
      ],
      "stateMutability": "view",
      "type": "function"
    },
    {
      "inputs": [
        {
          "internalType": "uint256",
          "name": "bountyId",
          "type": "uint256"
        }
      ],
      "name": "approveWork",
      "outputs": [],
      "stateMutability": "nonpayable",
      "type": "function"
    },
    {
      "inputs": [
        {
          "internalType": "uint256",
          "name": "",
          "type": "uint256"
        }
      ],
      "name": "bounties",
      "outputs": [
        {
          "internalType": "address",
          "name": "creator",
          "type": "address"
        },
        {
          "internalType": "address",
          "name": "hunter",
          "type": "address"
        },
        {
          "internalType": "uint256",
          "name": "reward",
          "type": "uint256"
        },
        {
          "internalType": "enum SnapBountyEscrow.BountyStatus",
          "name": "status",
          "type": "uint8"
        },
        {
          "internalType": "bytes32",
          "name": "proofHash",
          "type": "bytes32"
        },
        {
          "internalType": "uint256",
          "name": "deadline",
          "type": "uint256"
        },
        {
          "internalType": "uint256",
          "name": "createdAt",
          "type": "uint256"
        },
        {
          "internalType": "uint256",
          "name": "claimedAt",
          "type": "uint256"
        }
      ],
      "stateMutability": "view",
      "type": "function"
    },
    {
      "inputs": [],
      "name": "bountyCount",
      "outputs": [
        {
          "internalType": "uint256",
          "name": "",
          "type": "uint256"
        }
      ],
      "stateMutability": "view",
      "type": "function"
    },
    {
      "inputs": [
        {
          "internalType": "uint256",
          "name": "bountyId",
          "type": "uint256"
        }
      ],
      "name": "cancelBounty",
      "outputs": [],
      "stateMutability": "nonpayable",
      "type": "function"
    },
    {
      "inputs": [
        {
          "internalType": "uint256",
          "name": "bountyId",
          "type": "uint256"
        }
      ],
      "name": "claimBounty",
      "outputs": [],
      "stateMutability": "nonpayable",
      "type": "function"
    },
    {
      "inputs": [
        {
          "internalType": "uint256",
          "name": "reward",
          "type": "uint256"
        },
        {
          "internalType": "uint256",
          "name": "deadline",
          "type": "uint256"
        }
      ],
      "name": "createBounty",
      "outputs": [
        {
          "internalType": "uint256",
          "name": "bountyId",
          "type": "uint256"
        }
      ],
      "stateMutability": "nonpayable",
      "type": "function"
    },
    {
      "inputs": [
        {
          "internalType": "address",
          "name": "hunter",
          "type": "address"
        }
      ],
      "name": "getActiveClaim",
      "outputs": [
        {
          "internalType": "uint256",
          "name": "",
          "type": "uint256"
        }
      ],
      "stateMutability": "view",
      "type": "function"
    },
    {
      "inputs": [
        {
          "internalType": "uint256",
          "name": "bountyId",
          "type": "uint256"
        }
      ],
      "name": "getBounty",
      "outputs": [
        {
          "components": [
            {
              "internalType": "address",
              "name": "creator",
              "type": "address"
            },
            {
              "internalType": "address",
              "name": "hunter",
              "type": "address"
            },
            {
              "internalType": "uint256",
              "name": "reward",
              "type": "uint256"
            },
            {
              "internalType": "enum SnapBountyEscrow.BountyStatus",
              "name": "status",
              "type": "uint8"
            },
            {
              "internalType": "bytes32",
              "name": "proofHash",
              "type": "bytes32"
            },
            {
              "internalType": "uint256",
              "name": "deadline",
              "type": "uint256"
            },
            {
              "internalType": "uint256",
              "name": "createdAt",
              "type": "uint256"
            },
            {
              "internalType": "uint256",
              "name": "claimedAt",
              "type": "uint256"
            }
          ],
          "internalType": "struct SnapBountyEscrow.Bounty",
          "name": "",
          "type": "tuple"
        }
      ],
      "stateMutability": "view",
      "type": "function"
    },
    {
      "inputs": [
        {
          "internalType": "uint256",
          "name": "bountyId",
          "type": "uint256"
        }
      ],
      "name": "isExpired",
      "outputs": [
        {
          "internalType": "bool",
          "name": "",
          "type": "bool"
        }
      ],
      "stateMutability": "view",
      "type": "function"
    },
    {
      "inputs": [],
      "name": "owner",
      "outputs": [
        {
          "internalType": "address",
          "name": "",
          "type": "address"
        }
      ],
      "stateMutability": "view",
      "type": "function"
    },
    {
      "inputs": [],
      "name": "platformFeeBps",
      "outputs": [
        {
          "internalType": "uint256",
          "name": "",
          "type": "uint256"
        }
      ],
      "stateMutability": "view",
      "type": "function"
    },
    {
      "inputs": [
        {
          "internalType": "uint256",
          "name": "bountyId",
          "type": "uint256"
        },
        {
          "internalType": "string",
          "name": "reason",
          "type": "string"
        }
      ],
      "name": "rejectWork",
      "outputs": [],
      "stateMutability": "nonpayable",
      "type": "function"
    },
    {
      "inputs": [
        {
          "internalType": "uint256",
          "name": "bountyId",
          "type": "uint256"
        }
      ],
      "name": "releaseClaim",
      "outputs": [],
      "stateMutability": "nonpayable",
      "type": "function"
    },
    {
      "inputs": [
        {
          "internalType": "uint256",
          "name": "newFeeBps",
          "type": "uint256"
        }
      ],
      "name": "setPlatformFee",
      "outputs": [],
      "stateMutability": "nonpayable",
      "type": "function"
    },
    {
      "inputs": [
        {
          "internalType": "address",
          "name": "newTreasury",
          "type": "address"
        }
      ],
      "name": "setTreasury",
      "outputs": [],
      "stateMutability": "nonpayable",
      "type": "function"
    },
    {
      "inputs": [
        {
          "internalType": "uint256",
          "name": "bountyId",
          "type": "uint256"
        },
        {
          "internalType": "bytes32",
          "name": "proofHash",
          "type": "bytes32"
        }
      ],
      "name": "submitWork",
      "outputs": [],
      "stateMutability": "nonpayable",
      "type": "function"
    },
    {
      "inputs": [
        {
          "internalType": "address",
          "name": "newOwner",
          "type": "address"
        }
      ],
      "name": "transferOwnership",
      "outputs": [],
      "stateMutability": "nonpayable",
      "type": "function"
    },
    {
      "inputs": [],
      "name": "treasury",
      "outputs": [
        {
          "internalType": "address",
          "name": "",
          "type": "address"
        }
      ],
      "stateMutability": "view",
      "type": "function"
    },
    {
      "inputs": [],
      "name": "usdc",
      "outputs": [
        {
          "internalType": "contract IERC20",
          "name": "",
          "type": "address"
        }
      ],
      "stateMutability": "view",
      "type": "function"
    }
  ],
  "bytecode": "0x60a06040523480156200001157600080fd5b50604051620017c8380380620017c88339810160408190526200003491620000f4565b60016000556001600160a01b03831615806200005757506001600160a01b038216155b15620000765760405163e6c4247b60e01b815260040160405180910390fd5b6103e88111156200009a576040516358d620b360e01b815260040160405180910390fd5b6001600160a01b0392831660805260018054929093166001600160a01b031992831617909255600291909155600680549091163317905562000135565b80516001600160a01b0381168114620000ef57600080fd5b919050565b6000806000606084860312156200010a57600080fd5b6200011584620000d7565b92506200012560208501620000d7565b9150604084015190509250925092565b60805161165b6200016d600039600081816101cc0152818161067a0152818161073901528181610a260152611022015261165b6000f3fe608060405234801561001057600080fd5b50600436106101425760003560e01c80638da5cb5b116100b8578063dc2f87441161007c578063dc2f8744146102cd578063e1a4521814610343578063e5e5dff11461034c578063ee8c4bbf1461035f578063f0f442601461037f578063f2fde38b1461039257600080fd5b80638da5cb5b14610268578063a8bde4eb1461027b578063d55be8c61461028e578063d7ec40ee14610297578063d9548e53146102aa57600080fd5b80633e362c961161010a5780633e362c96146101be5780633e413bee146101c757806344021ad7146102065780634c31308c1461021957806361d027b3146102425780637925d4201461025557600080fd5b80630a9eeded1461014757806312e8e2c31461015c57806322dcd13e1461016f5780632eaf8a2b1461018b5780633d01e0fa146101ab575b600080fd5b61015a61015536600461137b565b6103a5565b005b61015a61016a36600461139d565b6104b7565b61017860025481565b6040519081526020015b60405180910390f35b6101786101993660046113b6565b60056020526000908152604090205481565b61015a6101b936600461139d565b61054a565b61017860035481565b6101ee7f000000000000000000000000000000000000000000000000000000000000000081565b6040516001600160a01b039091168152602001610182565b61015a61021436600461139d565b610826565b6101786102273660046113b6565b6001600160a01b031660009081526005602052604090205490565b6001546101ee906001600160a01b031681565b61017861026336600461137b565b6109a9565b6006546101ee906001600160a01b031681565b61015a61028936600461139d565b610c00565b6101786103e881565b61015a6102a53660046113e6565b610d07565b6102bd6102b836600461139d565b610e10565b6040519015158152602001610182565b61032f6102db36600461139d565b6004602081905260009182526040909120805460018201546002830154600384015494840154600585015460068601546007909601546001600160a01b03958616979590941695929460ff16939192909188565b60405161018298979695949392919061149a565b61017861271081565b61015a61035a36600461139d565b610e6c565b61037261036d36600461139d565b6110f4565b60405161018291906114ec565b61015a61038d3660046113b6565b611209565b61015a6103a03660046113b6565b6112ad565b818015806103b4575060035481115b156103d25760405163683267d360e11b815260040160405180910390fd5b600083815260046020526040902060018101546001600160a01b0316331461040d5760405163f722439560e01b815260040160405180910390fd5b6001600382015460ff16600481111561042857610428611462565b14610446576040516307a92f1960e51b815260040160405180910390fd5b826104645760405163162908e360e11b815260040160405180910390fd5b60038101805460ff1916600217905560048101839055604051838152339085907f829bcb7646703ca0e2dd5bcbff7bd5f68118210ef17c6bbcfa52a31136cb66ec9060200160405180910390a350505050565b6006546001600160a01b031633146104e2576040516330cd747160e01b815260040160405180910390fd5b6103e8811115610505576040516358d620b360e01b815260040160405180910390fd5b600280549082905560408051828152602081018490527f528d9479e9f9889a87a3c30c7f7ba537e5e59c4c85a37733b16e57c62df61302910160405180910390a15050565b610552611351565b80801580610561575060035481115b1561057f5760405163683267d360e11b815260040160405180910390fd5b600082815260046020526040902080546001600160a01b031633146105b757604051636431e4c160e11b815260040160405180910390fd5b6002600382015460ff1660048111156105d2576105d2611462565b146105f0576040516307a92f1960e51b815260040160405180910390fd5b60006127106002548360020154610607919061156f565b6106119190611586565b9050600081836002015461062591906115a8565b6003848101805460ff191690911790556001840180546001600160a01b039081166000908152600560205260408082208290559254925163a9059cbb60e01b81529282166004840152602483018490529293507f0000000000000000000000000000000000000000000000000000000000000000169063a9059cbb906044016020604051808303816000875af11580156106c3573d6000803e3d6000fd5b505050506040513d601f19601f820116820180604052508101906106e791906115bb565b905080610707576040516312171d8360e31b815260040160405180910390fd5b82156107c85760015460405163a9059cbb60e01b81526001600160a01b039182166004820152602481018590526000917f0000000000000000000000000000000000000000000000000000000000000000169063a9059cbb906044016020604051808303816000875af1158015610782573d6000803e3d6000fd5b505050506040513d601f19601f820116820180604052508101906107a691906115bb565b9050806107c6576040516312171d8360e31b815260040160405180910390fd5b505b600184015460408051848152602081018690526001600160a01b039092169188917fe6948f6bea73b2b13dd161269153f528dca531b28d65544489b767506f839191910160405180910390a350505050506108236001600055565b50565b80801580610835575060035481115b156108535760405163683267d360e11b815260040160405180910390fd5b600082815260046020526040812090600382015460ff16600481111561087b5761087b611462565b14610899576040516307a92f1960e51b815260040160405180910390fd5b6005810154158015906108b0575080600501544210155b156108ce576040516336cb7f3d60e21b815260040160405180910390fd5b33600090815260056020526040902054156108fc5760405163fe86039960e01b815260040160405180910390fd5b80546001600160a01b031633036109265760405163e6c4247b60e01b815260040160405180910390fd5b600180820180546001600160a01b0319163317905560038201805460ff1916828002179055504260078201819055336000818152600560205260409081902086905551909185917f23c972d46b3251ae358ad69fb3761ef8f5c38c5131502ed9e9bde9b129da92159161099c9190815260200190565b60405180910390a3505050565b60006109b3611351565b826000036109d45760405163162908e360e11b815260040160405180910390fd5b81158015906109e35750428211155b15610a01576040516336cb7f3d60e21b815260040160405180910390fd5b6040516323b872dd60e01b8152336004820152306024820152604481018490526000907f00000000000000000000000000000000000000000000000000000000000000006001600160a01b0316906323b872dd906064016020604051808303816000875af1158015610a77573d6000803e3d6000fd5b505050506040513d601f19601f82011682018060405250810190610a9b91906115bb565b905080610abb576040516312171d8360e31b815260040160405180910390fd5b60038054906000610acb836115dd565b9091555050600380546040805161010081018252338152600060208083018281528385018b8152606085018481526080860185905260a086018c90524260c087015260e0860185905287855260049384905295909320845181546001600160a01b03199081166001600160a01b039283161783559251600180840180549095169190921617909255925160028401559351958201805495985092959194919360ff1990921691908490811115610b8357610b83611462565b02179055506080820151600482015560a0820151600582015560c0820151600682015560e0909101516007909101556040805185815260208101859052339184917fc0718c24656ec3133a0a8bd25e68ebd7c25a017fde29dd1a67ff3f40f487112d910160405180910390a350610bfa6001600055565b92915050565b80801580610c0f575060035481115b15610c2d5760405163683267d360e11b815260040160405180910390fd5b600082815260046020526040902060018101546001600160a01b03163314610c685760405163f722439560e01b815260040160405180910390fd5b6001600382015460ff166004811115610c8357610c83611462565b14610ca1576040516307a92f1960e51b815260040160405180910390fd5b6001810180546001600160a01b031916905560038101805460ff19169055600060078201819055338082526005602052604080832083905551909185917f909d0309e792d4f17972cef6c4067bfd0b5fa112dd3aa00415fbac21afa3eb3e9190a3505050565b82801580610d16575060035481115b15610d345760405163683267d360e11b815260040160405180910390fd5b600084815260046020526040902080546001600160a01b03163314610d6c57604051636431e4c160e11b815260040160405180910390fd5b6002600382015460ff166004811115610d8757610d87611462565b14610da5576040516307a92f1960e51b815260040160405180910390fd5b60038101805460ff19166001908117909155600060048301558101546040516001600160a01b039091169086907ffb1f2b2d59e15c4d9793571c3df2fc8aa0fed8c4308b8f71ff5a77678e571e7290610e0190889088906115f6565b60405180910390a35050505050565b600081801580610e21575060035481115b15610e3f5760405163683267d360e11b815260040160405180910390fd5b6000838152600460205260409020600581015415801590610e64575080600501544210155b949350505050565b610e74611351565b80801580610e83575060035481115b15610ea15760405163683267d360e11b815260040160405180910390fd5b600082815260046020526040902080546001600160a01b03163314610ed957604051636431e4c160e11b815260040160405180910390fd5b60038082015460ff166004811115610ef357610ef3611462565b1480610f1757506004600382015460ff166004811115610f1557610f15611462565b145b15610f35576040516307a92f1960e51b815260040160405180910390fd5b6001600382015460ff166004811115610f5057610f50611462565b1480610f7457506002600382015460ff166004811115610f7257610f72611462565b145b15610fab5760058101541580610f8d5750806005015442105b15610fab57604051637bd500c960e01b815260040160405180910390fd5b600281015460018201546001600160a01b031615610fe15760018201546001600160a01b03166000908152600560205260408120555b6003820180546004919060ff19166001830217905550815460405163a9059cbb60e01b81526001600160a01b039182166004820152602481018390526000917f0000000000000000000000000000000000000000000000000000000000000000169063a9059cbb906044016020604051808303816000875af115801561106b573d6000803e3d6000fd5b505050506040513d601f19601f8201168201806040525081019061108f91906115bb565b9050806110af576040516312171d8360e31b815260040160405180910390fd5b604051828152339086907fb9670bf4f2273686f771c9ab65309436df5ed75afa63eefec8b67640d8bcf72c9060200160405180910390a3505050506108236001600055565b6040805161010081018252600080825260208201819052918101829052606081018290526080810182905260a0810182905260c0810182905260e081019190915281801580611144575060035481115b156111625760405163683267d360e11b815260040160405180910390fd5b60008381526004602081815260409283902083516101008101855281546001600160a01b039081168252600183015416928101929092526002810154938201939093526003830154909291606084019160ff16908111156111c5576111c5611462565b60048111156111d6576111d6611462565b81526004820154602082015260058201546040820152600682015460608201526007909101546080909101529392505050565b6006546001600160a01b03163314611234576040516330cd747160e01b815260040160405180910390fd5b6001600160a01b03811661125b5760405163e6c4247b60e01b815260040160405180910390fd5b600180546001600160a01b038381166001600160a01b0319831681179093556040519116919082907f4ab5be82436d353e61ca18726e984e561f5c1cc7c6d38b29d2553c790434705a90600090a35050565b6006546001600160a01b031633146112d8576040516330cd747160e01b815260040160405180910390fd5b6001600160a01b0381166112ff5760405163e6c4247b60e01b815260040160405180910390fd5b600680546001600160a01b038381166001600160a01b0319831681179093556040519116919082907f8be0079c531659141344cd1fd0a4f28419497f9722a3daafe3b4186f6b6457e090600090a35050565b60026000540361137457604051633ee5aeb560e01b815260040160405180910390fd5b6002600055565b6000806040838503121561138e57600080fd5b50508035926020909101359150565b6000602082840312156113af57600080fd5b5035919050565b6000602082840312156113c857600080fd5b81356001600160a01b03811681146113df57600080fd5b9392505050565b6000806000604084860312156113fb57600080fd5b83359250602084013567ffffffffffffffff8082111561141a57600080fd5b818601915086601f83011261142e57600080fd5b81358181111561143d57600080fd5b87602082850101111561144f57600080fd5b6020830194508093505050509250925092565b634e487b7160e01b600052602160045260246000fd5b6005811061149657634e487b7160e01b600052602160045260246000fd5b9052565b6001600160a01b038981168252881660208201526040810187905261010081016114c76060830188611478565b8560808301528460a08301528360c08301528260e08301529998505050505050505050565b81516001600160a01b039081168252602080840151909116908201526040808301519082015260608083015161010083019161152a90840182611478565b506080830151608083015260a083015160a083015260c083015160c083015260e083015160e083015292915050565b634e487b7160e01b600052601160045260246000fd5b8082028115828204841417610bfa57610bfa611559565b6000826115a357634e487b7160e01b600052601260045260246000fd5b500490565b81810381811115610bfa57610bfa611559565b6000602082840312156115cd57600080fd5b815180151581146113df57600080fd5b6000600182016115ef576115ef611559565b5060010190565b60208152816020820152818360408301376000818301604090810191909152601f909201601f1916010191905056fea2646970667358221220fbe3959793f61e294d514af586d7843fca59e504fffe40a3255de07cd4a6e70c64736f6c63430008180033",
  "linkReferences": {},
  "deployedLinkReferences": {}
}