{
  "_format": "hh-sol-artifact-1",
  "contractName": "SnapBountyEscrow",
  "sourceName": "src/SnapBountyEscrow.sol",
  "abi": [
    {
      "inputs": [
        {
          "internalType": "address",
          "name": "_usdc",
          "type": "address"
        },
        {
          "internalType": "address",
          "name": "_treasury",
          "type": "address"
        },
        {
          "internalType": "uint256",
          "name": "_platformFeeBps",
          "type": "uint256"
        },
        {
          "internalType": "address",
          "name": "_arbiter",
          "type": "address"
        },
        {
          "internalType": "uint256",
          "name": "_disputeFee",
          "type": "uint256"
        }
      ],
      "stateMutability": "nonpayable",
      "type": "constructor"
    },
    {
      "inputs": [],
      "name": "AlreadyHasActiveClaim",
      "type": "error"
    },
    {
      "inputs": [],
      "name": "BountyExpired",
      "type": "error"
    },
    {
      "inputs": [],
      "name": "BountyNotExpired",
      "type": "error"
    },
    {
      "inputs": [],
      "name": "CannotDisputeYet",
      "type": "error"
    },
    {
      "inputs": [],
      "name": "DisputeAlreadyExists",
      "type": "error"
    },
    {
      "inputs": [],
      "name": "DisputeAlreadyResolved",
      "type": "error"
    },
    {
      "inputs": [],
      "name": "DisputeNotFound",
      "type": "error"
    },
    {
      "inputs": [],
      "name": "DisputeWindowExpired",
      "type": "error"
    },
    {
      "inputs": [],
      "name": "EvidenceWindowClosed",
      "type": "error"
    },
    {
      "inputs": [],
      "name": "InvalidAddress",
      "type": "error"
    },
    {
      "inputs": [],
      "name": "InvalidAmount",
      "type": "error"
    },
    {
      "inputs": [],
      "name": "InvalidBountyId",
      "type": "error"
    },
    {
      "inputs": [],
      "name": "InvalidFee",
      "type": "error"
    },
    {
      "inputs": [],
      "name": "InvalidStatus",
      "type": "error"
    },
    {
      "inputs": [],
      "name": "NoActiveClaim",
      "type": "error"
    },
    {
      "inputs": [],
      "name": "NotArbiter",
      "type": "error"
    },
    {
      "inputs": [],
      "name": "NotBountyCreator",
      "type": "error"
    },
    {
      "inputs": [],
      "name": "NotBountyHunter",
      "type": "error"
    },
    {
      "inputs": [],
      "name": "NotOwner",
      "type": "error"
    },
    {
      "inputs": [],
      "name": "ReentrancyGuardReentrantCall",
      "type": "error"
    },
    {
      "inputs": [],
      "name": "TransferFailed",
      "type": "error"
    },
    {
      "anonymous": false,
      "inputs": [
        {
          "indexed": true,
          "internalType": "address",
          "name": "oldArbiter",
          "type": "address"
        },
        {
          "indexed": true,
          "internalType": "address",
          "name": "newArbiter",
          "type": "address"
        }
      ],
      "name": "ArbiterUpdated",
      "type": "event"
    },
    {
      "anonymous": false,
      "inputs": [
        {
          "indexed": true,
          "internalType": "uint256",
          "name": "bountyId",
          "type": "uint256"
        },
        {
          "indexed": true,
          "internalType": "address",
          "name": "creator",
          "type": "address"
        },
        {
          "indexed": false,
          "internalType": "uint256",
          "name": "refundAmount",
          "type": "uint256"
        }
      ],
      "name": "BountyCancelled",
      "type": "event"
    },
    {
      "anonymous": false,
      "inputs": [
        {
          "indexed": true,
          "internalType": "uint256",
          "name": "bountyId",
          "type": "uint256"
        },
        {
          "indexed": true,
          "internalType": "address",
          "name": "hunter",
          "type": "address"
        },
        {
          "indexed": false,
          "internalType": "uint256",
          "name": "claimedAt",
          "type": "uint256"
        }
      ],
      "name": "BountyClaimed",
      "type": "event"
    },
    {
      "anonymous": false,
      "inputs": [
        {
          "indexed": true,
          "internalType": "uint256",
          "name": "bountyId",
          "type": "uint256"
        },
        {
          "indexed": true,
          "internalType": "address",
          "name": "creator",
          "type": "address"
        },
        {
          "indexed": false,
          "internalType": "uint256",
          "name": "reward",
          "type": "uint256"
        },
        {
          "indexed": false,
          "internalType": "uint256",
          "name": "deadline",
          "type": "uint256"
        }
      ],
      "name": "BountyCreated",
      "type": "event"
    },
    {
      "anonymous": false,
      "inputs": [
        {
          "indexed": true,
          "internalType": "uint256",
          "name": "bountyId",
          "type": "uint256"
        },
        {
          "indexed": true,
          "internalType": "address",
          "name": "hunter",
          "type": "address"
        }
      ],
      "name": "ClaimReleased",
      "type": "event"
    },
    {
      "anonymous": false,
      "inputs": [
        {
          "indexed": true,
          "internalType": "uint256",
          "name": "bountyId",
          "type": "uint256"
        },
        {
          "indexed": true,
          "internalType": "address",
          "name": "submitter",
          "type": "address"
        },
        {
          "indexed": false,
          "internalType": "bytes32",
          "name": "evidenceHash",
          "type": "bytes32"
        }
      ],
      "name": "DisputeEvidenceSubmitted",
      "type": "event"
    },
    {
      "anonymous": false,
      "inputs": [
        {
          "indexed": false,
          "internalType": "uint256",
          "name": "oldFee",
          "type": "uint256"
        },
        {
          "indexed": false,
          "internalType": "uint256",
          "name": "newFee",
          "type": "uint256"
        }
      ],
      "name": "DisputeFeeUpdated",
      "type": "event"
    },
    {
      "anonymous": false,
      "inputs": [
        {
          "indexed": true,
          "internalType": "uint256",
          "name": "bountyId",
          "type": "uint256"
        },
        {
          "indexed": true,
          "internalType": "address",
          "name": "hunter",
          "type": "address"
        },
        {
          "indexed": false,
          "internalType": "bytes32",
          "name": "evidenceHash",
          "type": "bytes32"
        },
        {
          "indexed": false,
          "internalType": "uint256",
          "name": "disputeFee",
          "type": "uint256"
        }
      ],
      "name": "DisputeOpened",
      "type": "event"
    },
    {
      "anonymous": false,
      "inputs": [
        {
          "indexed": true,
          "internalType": "uint256",
          "name": "bountyId",
          "type": "uint256"
        },
        {
          "indexed": false,
          "internalType": "enum SnapBountyEscrow.DisputeResolution",
          "name": "resolution",
          "type": "uint8"
        },
        {
          "indexed": false,
          "internalType": "uint256",
          "name": "hunterPayout",
          "type": "uint256"
        },
        {
          "indexed": false,
          "internalType": "uint256",
          "name": "creatorRefund",
          "type": "uint256"
        }
      ],
      "name": "DisputeResolved",
      "type": "event"
    },
    {
      "anonymous": false,
      "inputs": [
        {
          "indexed": false,
          "internalType": "uint256",
          "name": "oldFee",
          "type": "uint256"
        },
        {
          "indexed": false,
          "internalType": "uint256",
          "name": "newFee",
          "type": "uint256"
        }
      ],
      "name": "FeeUpdated",
      "type": "event"
    },
    {
      "anonymous": false,
      "inputs": [
        {
          "indexed": true,
          "internalType": "address",
          "name": "previousOwner",
          "type": "address"
        },
        {
          "indexed": true,
          "internalType": "address",
          "name": "newOwner",
          "type": "address"
        }
      ],
      "name": "OwnershipTransferred",
      "type": "event"
    },
    {
      "anonymous": false,
      "inputs": [
        {
          "indexed": true,
          "internalType": "address",
          "name": "oldTreasury",
          "type": "address"
        },
        {
          "indexed": true,
          "internalType": "address",
          "name": "newTreasury",
          "type": "address"
        }
      ],
      "name": "TreasuryUpdated",
      "type": "event"
    },
    {
      "anonymous": false,
      "inputs": [
        {
          "indexed": true,
          "internalType": "uint256",
          "name": "bountyId",
          "type": "uint256"
        },
        {
          "indexed": true,
          "internalType": "address",
          "name": "hunter",
          "type": "address"
        },
        {
          "indexed": false,
          "internalType": "uint256",
          "name": "payout",
          "type": "uint256"
        },
        {
          "indexed": false,
          "internalType": "uint256",
          "name": "fee",
          "type": "uint256"
        }
      ],
      "name": "WorkApproved",
      "type": "event"
    },
    {
      "anonymous": false,
      "inputs": [
        {
          "indexed": true,
          "internalType": "uint256",
          "name": "bountyId",
          "type": "uint256"
        },
        {
          "indexed": true,
          "internalType": "address",
          "name": "hunter",
          "type": "address"
        },
        {
          "indexed": false,
          "internalType": "string",
          "name": "reason",
          "type": "string"
        }
      ],
      "name": "WorkRejected",
      "type": "event"
    },
    {
      "anonymous": false,
      "inputs": [
        {
          "indexed": true,
          "internalType": "uint256",
          "name": "bountyId",
          "type": "uint256"
        },
        {
          "indexed": true,
          "internalType": "address",
          "name": "hunter",
          "type": "address"
        },
        {
          "indexed": false,
          "internalType": "bytes32",
          "name": "proofHash",
          "type": "bytes32"
        }
      ],
      "name": "WorkSubmitted",
      "type": "event"
    },
    {
      "inputs": [],
      "name": "BPS_DENOMINATOR",
      "outputs": [
        {
          "internalType": "uint256",
          "name": "",
          "type": "uint256"
        }
      ],
      "stateMutability": "view",
      "type": "function"
    },
    {
      "inputs": [],
      "name": "CREATOR_EVIDENCE_WINDOW",
      "outputs": [
        {
          "internalType": "uint256",
          "name": "",
          "type": "uint256"
        }
      ],
      "stateMutability": "view",
      "type": "function"
    },
    {
      "inputs": [],
      "name": "DISPUTE_RESOLUTION_WINDOW",
      "outputs": [
        {
          "internalType": "uint256",
          "name": "",
          "type": "uint256"
        }
      ],
      "stateMutability": "view",
      "type": "function"
    },
    {
      "inputs": [],
      "name": "MAX_CLAIM_DURATION",
      "outputs": [
        {
          "internalType": "uint256",
          "name": "",
          "type": "uint256"
        }
      ],
      "stateMutability": "view",
      "type": "function"
    },
    {
      "inputs": [],
      "name": "MAX_FEE_BPS",
      "outputs": [
        {
          "internalType": "uint256",
          "name": "",
          "type": "uint256"
        }
      ],
      "stateMutability": "view",
      "type": "function"
    },
    {
      "inputs": [],
      "name": "MAX_REJECTIONS",
      "outputs": [
        {
          "internalType": "uint8",
          "name": "",
          "type": "uint8"
        }
      ],
      "stateMutability": "view",
      "type": "function"
    },
    {
      "inputs": [
        {
          "internalType": "address",
          "name": "",
          "type": "address"
        }
      ],
      "name": "activeClaim",
      "outputs": [
        {
          "internalType": "uint256",
          "name": "",
          "type": "uint256"
        }
      ],
      "stateMutability": "view",
      "type": "function"
    },
    {
      "inputs": [
        {
          "internalType": "uint256",
          "name": "bountyId",
          "type": "uint256"
        }
      ],
      "name": "approveWork",
      "outputs": [],
      "stateMutability": "nonpayable",
      "type": "function"
    },
    {
      "inputs": [],
      "name": "arbiter",
      "outputs": [
        {
          "internalType": "address",
          "name": "",
          "type": "address"
        }
      ],
      "stateMutability": "view",
      "type": "function"
    },
    {
      "inputs": [
        {
          "internalType": "uint256",
          "name": "bountyId",
          "type": "uint256"
        }
      ],
      "name": "autoResolveDispute",
      "outputs": [],
      "stateMutability": "nonpayable",
      "type": "function"
    },
    {
      "inputs": [
        {
          "internalType": "uint256",
          "name": "",
          "type": "uint256"
        }
      ],
      "name": "bounties",
      "outputs": [
        {
          "internalType": "address",
          "name": "creator",
          "type": "address"
        },
        {
          "internalType": "address",
          "name": "hunter",
          "type": "address"
        },
        {
          "internalType": "uint256",
          "name": "reward",
          "type": "uint256"
        },
        {
          "internalType": "enum SnapBountyEscrow.BountyStatus",
          "name": "status",
          "type": "uint8"
        },
        {
          "internalType": "bytes32",
          "name": "proofHash",
          "type": "bytes32"
        },
        {
          "internalType": "uint256",
          "name": "deadline",
          "type": "uint256"
        },
        {
          "internalType": "uint256",
          "name": "createdAt",
          "type": "uint256"
        },
        {
          "internalType": "uint256",
          "name": "claimedAt",
          "type": "uint256"
        },
        {
          "internalType": "uint8",
          "name": "rejectionCount",
          "type": "uint8"
        }
      ],
      "stateMutability": "view",
      "type": "function"
    },
    {
      "inputs": [],
      "name": "bountyCount",
      "outputs": [
        {
          "internalType": "uint256",
          "name": "",
          "type": "uint256"
        }
      ],
      "stateMutability": "view",
      "type": "function"
    },
    {
      "inputs": [
        {
          "internalType": "uint256",
          "name": "bountyId",
          "type": "uint256"
        }
      ],
      "name": "canBeCancelled",
      "outputs": [
        {
          "internalType": "bool",
          "name": "canCancel",
          "type": "bool"
        },
        {
          "internalType": "string",
          "name": "reason",
          "type": "string"
        }
      ],
      "stateMutability": "view",
      "type": "function"
    },
    {
      "inputs": [
        {
          "internalType": "uint256",
          "name": "bountyId",
          "type": "uint256"
        }
      ],
      "name": "canOpenDispute",
      "outputs": [
        {
          "internalType": "bool",
          "name": "canDispute",
          "type": "bool"
        },
        {
          "internalType": "string",
          "name": "reason",
          "type": "string"
        }
      ],
      "stateMutability": "view",
      "type": "function"
    },
    {
      "inputs": [
        {
          "internalType": "uint256",
          "name": "bountyId",
          "type": "uint256"
        }
      ],
      "name": "cancelBounty",
      "outputs": [],
      "stateMutability": "nonpayable",
      "type": "function"
    },
    {
      "inputs": [
        {
          "internalType": "uint256",
          "name": "bountyId",
          "type": "uint256"
        }
      ],
      "name": "claimBounty",
      "outputs": [],
      "stateMutability": "nonpayable",
      "type": "function"
    },
    {
      "inputs": [
        {
          "internalType": "uint256",
          "name": "reward",
          "type": "uint256"
        },
        {
          "internalType": "uint256",
          "name": "deadline",
          "type": "uint256"
        }
      ],
      "name": "createBounty",
      "outputs": [
        {
          "internalType": "uint256",
          "name": "bountyId",
          "type": "uint256"
        }
      ],
      "stateMutability": "nonpayable",
      "type": "function"
    },
    {
      "inputs": [],
      "name": "disputeCount",
      "outputs": [
        {
          "internalType": "uint256",
          "name": "",
          "type": "uint256"
        }
      ],
      "stateMutability": "view",
      "type": "function"
    },
    {
      "inputs": [],
      "name": "disputeFee",
      "outputs": [
        {
          "internalType": "uint256",
          "name": "",
          "type": "uint256"
        }
      ],
      "stateMutability": "view",
      "type": "function"
    },
    {
      "inputs": [
        {
          "internalType": "uint256",
          "name": "",
          "type": "uint256"
        }
      ],
      "name": "disputes",
      "outputs": [
        {
          "internalType": "uint256",
          "name": "bountyId",
          "type": "uint256"
        },
        {
          "internalType": "address",
          "name": "initiator",
          "type": "address"
        },
        {
          "internalType": "bytes32",
          "name": "hunterEvidence",
          "type": "bytes32"
        },
        {
          "internalType": "bytes32",
          "name": "creatorEvidence",
          "type": "bytes32"
        },
        {
          "internalType": "uint256",
          "name": "openedAt",
          "type": "uint256"
        },
        {
          "internalType": "uint256",
          "name": "disputeFee",
          "type": "uint256"
        },
        {
          "internalType": "enum SnapBountyEscrow.DisputeResolution",
          "name": "resolution",
          "type": "uint8"
        },
        {
          "internalType": "bool",
          "name": "resolved",
          "type": "bool"
        }
      ],
      "stateMutability": "view",
      "type": "function"
    },
    {
      "inputs": [
        {
          "internalType": "address",
          "name": "hunter",
          "type": "address"
        }
      ],
      "name": "getActiveClaim",
      "outputs": [
        {
          "internalType": "uint256",
          "name": "",
          "type": "uint256"
        }
      ],
      "stateMutability": "view",
      "type": "function"
    },
    {
      "inputs": [
        {
          "internalType": "uint256",
          "name": "bountyId",
          "type": "uint256"
        }
      ],
      "name": "getBounty",
      "outputs": [
        {
          "components": [
            {
              "internalType": "address",
              "name": "creator",
              "type": "address"
            },
            {
              "internalType": "address",
              "name": "hunter",
              "type": "address"
            },
            {
              "internalType": "uint256",
              "name": "reward",
              "type": "uint256"
            },
            {
              "internalType": "enum SnapBountyEscrow.BountyStatus",
              "name": "status",
              "type": "uint8"
            },
            {
              "internalType": "bytes32",
              "name": "proofHash",
              "type": "bytes32"
            },
            {
              "internalType": "uint256",
              "name": "deadline",
              "type": "uint256"
            },
            {
              "internalType": "uint256",
              "name": "createdAt",
              "type": "uint256"
            },
            {
              "internalType": "uint256",
              "name": "claimedAt",
              "type": "uint256"
            },
            {
              "internalType": "uint8",
              "name": "rejectionCount",
              "type": "uint8"
            }
          ],
          "internalType": "struct SnapBountyEscrow.Bounty",
          "name": "",
          "type": "tuple"
        }
      ],
      "stateMutability": "view",
      "type": "function"
    },
    {
      "inputs": [
        {
          "internalType": "uint256",
          "name": "bountyId",
          "type": "uint256"
        }
      ],
      "name": "getClaimExpirationTime",
      "outputs": [
        {
          "internalType": "uint256",
          "name": "expiresAt",
          "type": "uint256"
        }
      ],
      "stateMutability": "view",
      "type": "function"
    },
    {
      "inputs": [
        {
          "internalType": "uint256",
          "name": "bountyId",
          "type": "uint256"
        }
      ],
      "name": "getDispute",
      "outputs": [
        {
          "components": [
            {
              "internalType": "uint256",
              "name": "bountyId",
              "type": "uint256"
            },
            {
              "internalType": "address",
              "name": "initiator",
              "type": "address"
            },
            {
              "internalType": "bytes32",
              "name": "hunterEvidence",
              "type": "bytes32"
            },
            {
              "internalType": "bytes32",
              "name": "creatorEvidence",
              "type": "bytes32"
            },
            {
              "internalType": "uint256",
              "name": "openedAt",
              "type": "uint256"
            },
            {
              "internalType": "uint256",
              "name": "disputeFee",
              "type": "uint256"
            },
            {
              "internalType": "enum SnapBountyEscrow.DisputeResolution",
              "name": "resolution",
              "type": "uint8"
            },
            {
              "internalType": "bool",
              "name": "resolved",
              "type": "bool"
            }
          ],
          "internalType": "struct SnapBountyEscrow.Dispute",
          "name": "",
          "type": "tuple"
        }
      ],
      "stateMutability": "view",
      "type": "function"
    },
    {
      "inputs": [
        {
          "internalType": "uint256",
          "name": "bountyId",
          "type": "uint256"
        }
      ],
      "name": "isExpired",
      "outputs": [
        {
          "internalType": "bool",
          "name": "",
          "type": "bool"
        }
      ],
      "stateMutability": "view",
      "type": "function"
    },
    {
      "inputs": [
        {
          "internalType": "uint256",
          "name": "bountyId",
          "type": "uint256"
        },
        {
          "internalType": "bytes32",
          "name": "evidenceHash",
          "type": "bytes32"
        }
      ],
      "name": "openDispute",
      "outputs": [],
      "stateMutability": "nonpayable",
      "type": "function"
    },
    {
      "inputs": [],
      "name": "owner",
      "outputs": [
        {
          "internalType": "address",
          "name": "",
          "type": "address"
        }
      ],
      "stateMutability": "view",
      "type": "function"
    },
    {
      "inputs": [],
      "name": "platformFeeBps",
      "outputs": [
        {
          "internalType": "uint256",
          "name": "",
          "type": "uint256"
        }
      ],
      "stateMutability": "view",
      "type": "function"
    },
    {
      "inputs": [
        {
          "internalType": "uint256",
          "name": "bountyId",
          "type": "uint256"
        },
        {
          "internalType": "string",
          "name": "reason",
          "type": "string"
        }
      ],
      "name": "rejectWork",
      "outputs": [],
      "stateMutability": "nonpayable",
      "type": "function"
    },
    {
      "inputs": [
        {
          "internalType": "uint256",
          "name": "bountyId",
          "type": "uint256"
        }
      ],
      "name": "releaseClaim",
      "outputs": [],
      "stateMutability": "nonpayable",
      "type": "function"
    },
    {
      "inputs": [
        {
          "internalType": "uint256",
          "name": "bountyId",
          "type": "uint256"
        },
        {
          "internalType": "enum SnapBountyEscrow.DisputeResolution",
          "name": "resolution",
          "type": "uint8"
        }
      ],
      "name": "resolveDispute",
      "outputs": [],
      "stateMutability": "nonpayable",
      "type": "function"
    },
    {
      "inputs": [
        {
          "internalType": "address",
          "name": "newArbiter",
          "type": "address"
        }
      ],
      "name": "setArbiter",
      "outputs": [],
      "stateMutability": "nonpayable",
      "type": "function"
    },
    {
      "inputs": [
        {
          "internalType": "uint256",
          "name": "newDisputeFee",
          "type": "uint256"
        }
      ],
      "name": "setDisputeFee",
      "outputs": [],
      "stateMutability": "nonpayable",
      "type": "function"
    },
    {
      "inputs": [
        {
          "internalType": "uint256",
          "name": "newFeeBps",
          "type": "uint256"
        }
      ],
      "name": "setPlatformFee",
      "outputs": [],
      "stateMutability": "nonpayable",
      "type": "function"
    },
    {
      "inputs": [
        {
          "internalType": "address",
          "name": "newTreasury",
          "type": "address"
        }
      ],
      "name": "setTreasury",
      "outputs": [],
      "stateMutability": "nonpayable",
      "type": "function"
    },
    {
      "inputs": [
        {
          "internalType": "uint256",
          "name": "bountyId",
          "type": "uint256"
        },
        {
          "internalType": "bytes32",
          "name": "evidenceHash",
          "type": "bytes32"
        }
      ],
      "name": "submitDisputeEvidence",
      "outputs": [],
      "stateMutability": "nonpayable",
      "type": "function"
    },
    {
      "inputs": [
        {
          "internalType": "uint256",
          "name": "bountyId",
          "type": "uint256"
        },
        {
          "internalType": "bytes32",
          "name": "proofHash",
          "type": "bytes32"
        }
      ],
      "name": "submitWork",
      "outputs": [],
      "stateMutability": "nonpayable",
      "type": "function"
    },
    {
      "inputs": [
        {
          "internalType": "address",
          "name": "newOwner",
          "type": "address"
        }
      ],
      "name": "transferOwnership",
      "outputs": [],
      "stateMutability": "nonpayable",
      "type": "function"
    },
    {
      "inputs": [],
      "name": "treasury",
      "outputs": [
        {
          "internalType": "address",
          "name": "",
          "type": "address"
        }
      ],
      "stateMutability": "view",
      "type": "function"
    },
    {
      "inputs": [],
      "name": "usdc",
      "outputs": [
        {
          "internalType": "contract IERC20",
          "name": "",
          "type": "address"
        }
      ],
      "stateMutability": "view",
      "type": "function"
    }
  ],
  "bytecode": "0x60a06040523480156200001157600080fd5b50604051620036333803806200363383398101604081905262000034916200011a565b60016000556001600160a01b03851615806200005757506001600160a01b038416155b806200006a57506001600160a01b038216155b15620000895760405163e6c4247b60e01b815260040160405180910390fd5b6103e8831115620000ad576040516358d620b360e01b815260040160405180910390fd5b6001600160a01b03948516608052600180549486166001600160a01b0319958616179055600292909255600880549190941690831617909255600991909155600a80549091163317905562000178565b80516001600160a01b03811681146200011557600080fd5b919050565b600080600080600060a086880312156200013357600080fd5b6200013e86620000fd565b94506200014e60208701620000fd565b9350604086015192506200016560608701620000fd565b9150608086015190509295509295909350565b60805161343d620001f66000396000818161031201528181610a3801528181610af701528181611153015281816114d301528181611594015281816120830152818161214401528181612224015281816122ee015281816123ad0152818161246701528181612525015281816128080152612cdb015261343d6000f3fe608060405234801561001057600080fd5b50600436106102485760003560e01c8063a28889e11161013b578063e3a96cbd116100b8578063f2fde38b1161007c578063f2fde38b14610616578063f3eca9f514610629578063f83994251461063c578063fe25e00a14610646578063fe62dfea1461065957600080fd5b8063e3a96cbd1461059d578063e55e4211146105bd578063e5e5dff1146105d0578063ee8c4bbf146105e3578063f0f442601461060357600080fd5b8063d55be8c6116100ff578063d55be8c6146104d3578063d7ec40ee146104dc578063d9548e53146104ef578063dc2f874414610512578063e1a452181461059457600080fd5b8063a28889e114610488578063a47589de14610491578063a8bde4eb146104a4578063b9ce896b146104b7578063c02d0872146104c057600080fd5b806344021ad7116101c95780635f7ed8231161018d5780635f7ed8231461041b57806361d027b31461043c5780637925d4201461044f578063802f022c146104625780638da5cb5b1461047557600080fd5b806344021ad71461034c5780634c31308c1461035f578063564a565d146103885780635c980829146103fe5780635cf01a531461040857600080fd5b80632624d375116102105780632624d375146102b75780632eaf8a2b146102d15780633d01e0fa146102f15780633e362c96146103045780633e413bee1461030d57600080fd5b80630a9eeded1461024d57806312e8e2c31461026257806317299c04146102755780631c9c088a1461028857806322dcd13e1461029b575b600080fd5b61026061025b366004612eff565b610663565b005b610260610270366004612f21565b610775565b610260610283366004612f21565b610809565b610260610296366004612f3a565b610872565b6102a460025481565b6040519081526020015b60405180910390f35b6102bf600381565b60405160ff90911681526020016102ae565b6102a46102df366004612f3a565b60056020526000908152604090205481565b6102606102ff366004612f21565b610916565b6102a460035481565b6103347f000000000000000000000000000000000000000000000000000000000000000081565b6040516001600160a01b0390911681526020016102ae565b61026061035a366004612f21565b610bf2565b6102a461036d366004612f3a565b6001600160a01b031660009081526005602052604090205490565b6103ea610396366004612f21565b6006602081905260009182526040909120805460018201546002830154600384015460048501546005860154959096015493956001600160a01b039093169491939092919060ff8082169161010090041688565b6040516102ae989796959493929190612f94565b6102a46212750081565b6102a4610416366004612f21565b610d75565b61042e610429366004612f21565b610e48565b6040516102ae929190612fe9565b600154610334906001600160a01b031681565b6102a461045d366004612eff565b6110d6565b610260610470366004612f21565b61134a565b600a54610334906001600160a01b031681565b6102a460075481565b61026061049f366004612eff565b61167f565b6102606104b2366004612f21565b6117ea565b6102a460095481565b61042e6104ce366004612f21565b6118f1565b6102a46103e881565b6102606104ea366004613042565b611be7565b6105026104fd366004612f21565b611d13565b60405190151581526020016102ae565b61057f610520366004612f21565b60046020819052600091825260409091208054600182015460028301546003840154948401546005850154600686015460078701546008909701546001600160a01b03968716989590961696939560ff95861695939492939192911689565b6040516102ae999897969594939291906130ce565b6102a461271081565b6105b06105ab366004612f21565b611d6f565b6040516102ae919061312a565b6102606105cb366004613194565b611e8c565b6102606105de366004612f21565b61262f565b6105f66105f1366004612f21565b6128e8565b6040516102ae91906131c8565b610260610611366004612f3a565b612a13565b610260610624366004612f3a565b612ab7565b610260610637366004612eff565b612b5b565b6102a462093a8081565b600854610334906001600160a01b031681565b6102a462278d0081565b81801580610672575060035481115b156106905760405163683267d360e11b815260040160405180910390fd5b600083815260046020526040902060018101546001600160a01b031633146106cb5760405163f722439560e01b815260040160405180910390fd5b6001600382015460ff1660058111156106e6576106e6612f6a565b14610704576040516307a92f1960e51b815260040160405180910390fd5b826107225760405163162908e360e11b815260040160405180910390fd5b60038101805460ff1916600217905560048101839055604051838152339085907f829bcb7646703ca0e2dd5bcbff7bd5f68118210ef17c6bbcfa52a31136cb66ec9060200160405180910390a350505050565b600a546001600160a01b031633146107a0576040516330cd747160e01b815260040160405180910390fd5b6103e88111156107c3576040516358d620b360e01b815260040160405180910390fd5b600280549082905560408051828152602081018490527f528d9479e9f9889a87a3c30c7f7ba537e5e59c4c85a37733b16e57c62df6130291015b60405180910390a15050565b600a546001600160a01b03163314610834576040516330cd747160e01b815260040160405180910390fd5b600980549082905560408051828152602081018490527fe8fc23e21608aa8e92faee11af5686b6aa7531796f68f2f943bb0d893c4312c991016107fd565b600a546001600160a01b0316331461089d576040516330cd747160e01b815260040160405180910390fd5b6001600160a01b0381166108c45760405163e6c4247b60e01b815260040160405180910390fd5b600880546001600160a01b038381166001600160a01b0319831681179093556040519116919082907ff0077b1d49976ecd154f8efdc46cca625489710840b8995fb53d9efa037353ba90600090a35050565b61091e612ed5565b8080158061092d575060035481115b1561094b5760405163683267d360e11b815260040160405180910390fd5b600082815260046020526040902080546001600160a01b0316331461098357604051636431e4c160e11b815260040160405180910390fd5b6002600382015460ff16600581111561099e5761099e612f6a565b146109bc576040516307a92f1960e51b815260040160405180910390fd5b600061271060025483600201546109d39190613262565b6109dd9190613279565b905060008183600201546109f1919061329b565b6003848101805460ff191690911790556001840180546001600160a01b039081166000908152600560205260408082208290559254925163a9059cbb60e01b8152939450927f000000000000000000000000000000000000000000000000000000000000000082169263a9059cbb92610a719291169086906004016132ae565b6020604051808303816000875af1158015610a90573d6000803e3d6000fd5b505050506040513d601f19601f82011682018060405250810190610ab491906132c7565b905080610ad4576040516312171d8360e31b815260040160405180910390fd5b8215610b945760015460405163a9059cbb60e01b81526000916001600160a01b037f000000000000000000000000000000000000000000000000000000000000000081169263a9059cbb92610b2f92169088906004016132ae565b6020604051808303816000875af1158015610b4e573d6000803e3d6000fd5b505050506040513d601f19601f82011682018060405250810190610b7291906132c7565b905080610b92576040516312171d8360e31b815260040160405180910390fd5b505b600184015460408051848152602081018690526001600160a01b039092169188917fe6948f6bea73b2b13dd161269153f528dca531b28d65544489b767506f839191910160405180910390a35050505050610bef6001600055565b50565b80801580610c01575060035481115b15610c1f5760405163683267d360e11b815260040160405180910390fd5b600082815260046020526040812090600382015460ff166005811115610c4757610c47612f6a565b14610c65576040516307a92f1960e51b815260040160405180910390fd5b600581015415801590610c7c575080600501544210155b15610c9a576040516336cb7f3d60e21b815260040160405180910390fd5b3360009081526005602052604090205415610cc85760405163fe86039960e01b815260040160405180910390fd5b80546001600160a01b03163303610cf25760405163e6c4247b60e01b815260040160405180910390fd5b600180820180546001600160a01b0319163317905560038201805460ff1916828002179055504260078201819055336000818152600560205260409081902086905551909185917f23c972d46b3251ae358ad69fb3761ef8f5c38c5131502ed9e9bde9b129da921591610d689190815260200190565b60405180910390a3505050565b600081801580610d86575060035481115b15610da45760405163683267d360e11b815260040160405180910390fd5b60008381526004602052604090206001600382015460ff166005811115610dcd57610dcd612f6a565b14158015610df457506002600382015460ff166005811115610df157610df1612f6a565b14155b15610e03576000925050610e42565b600062278d008260070154610e1891906132e9565b60058301549091508015801590610e2e57508181105b15610e3d579350610e42915050565b509250505b50919050565b6000606082801580610e5b575060035481115b15610e795760405163683267d360e11b815260040160405180910390fd5b600084815260046020526040902060038082015460ff166005811115610ea157610ea1612f6a565b03610ee357600060405180604001604052806018815260200177109bdd5b9d1e48185b1c9958591e4818dbdb5c1b195d195960421b81525093509350506110d0565b6004600382015460ff166005811115610efe57610efe612f6a565b03610f4057600060405180604001604052806018815260200177109bdd5b9d1e48185b1c9958591e4818d85b98d95b1b195960421b81525093509350506110d0565b6005600382015460ff166005811115610f5b57610f5b612f6a565b03610f9957600060405180604001604052806014815260200173426f756e747920697320696e206469737075746560601b81525093509350506110d0565b6000600382015460ff166005811115610fb457610fb4612f6a565b03610fec5760016040518060400160405280600e81526020016d2137bab73a3c9034b99037b832b760911b81525093509350506110d0565b60008160050154600014158015611007575081600501544210155b9050600062278d00836007015461101e91906132e9565b4210159050811561106357600160405180604001604052806013815260200172111958591b1a5b99481a185cc81c185cdcd959606a1b815250955095505050506110d0565b80156110ad5760016040518060400160405280601781526020017f436c61696d206475726174696f6e206578636565646564000000000000000000815250955095505050506110d0565b60006040518060600160405280603a81526020016133a8603a9139955095505050505b50915091565b60006110e0612ed5565b826000036111015760405163162908e360e11b815260040160405180910390fd5b81158015906111105750428211155b1561112e576040516336cb7f3d60e21b815260040160405180910390fd5b6040516323b872dd60e01b8152336004820152306024820152604481018490526000907f00000000000000000000000000000000000000000000000000000000000000006001600160a01b0316906323b872dd906064016020604051808303816000875af11580156111a4573d6000803e3d6000fd5b505050506040513d601f19601f820116820180604052508101906111c891906132c7565b9050806111e8576040516312171d8360e31b815260040160405180910390fd5b600380549060006111f8836132fc565b9091555050600380546040805161012081018252338152600060208083018281528385018b8152606085018481526080860185905260a086018c90524260c087015260e086018590526101008601859052878552600490935294909220835181546001600160a01b03199081166001600160a01b039283161783559351600180840180549096169190921617909355935160028501555194830180549497509194929360ff1916908360058111156112b2576112b2612f6a565b02179055506080820151600482015560a0820151600582015560c0820151600682015560e08201516007820155610100909101516008909101805460ff191660ff9092169190911790556040805185815260208101859052339184917fc0718c24656ec3133a0a8bd25e68ebd7c25a017fde29dd1a67ff3f40f487112d910160405180910390a3506113446001600055565b92915050565b611352612ed5565b80801580611361575060035481115b1561137f5760405163683267d360e11b815260040160405180910390fd5b600082815260046020908152604080832060069092529091206005600383015460ff1660058111156113b3576113b3612f6a565b146113d1576040516307a92f1960e51b815260040160405180910390fd5b6006810154610100900460ff16156113fc5760405163f10068b560e01b815260040160405180910390fd5b62127500816004015461140f91906132e9565b42101561142f5760405163234c0ffd60e21b815260040160405180910390fd5b60068101805461ffff19166101011790556003828101805460ff1916909117905560018201546001600160a01b0316600090815260056020526040812081905560028054908401546127109161148491613262565b61148e9190613279565b9050600082600501548285600201546114a7919061329b565b6114b191906132e9565b600185015460405163a9059cbb60e01b81529192506000916001600160a01b037f000000000000000000000000000000000000000000000000000000000000000081169263a9059cbb9261150e92919091169086906004016132ae565b6020604051808303816000875af115801561152d573d6000803e3d6000fd5b505050506040513d601f19601f8201168201806040525081019061155191906132c7565b905080611571576040516312171d8360e31b815260040160405180910390fd5b82156116315760015460405163a9059cbb60e01b81526000916001600160a01b037f000000000000000000000000000000000000000000000000000000000000000081169263a9059cbb926115cc92169088906004016132ae565b6020604051808303816000875af11580156115eb573d6000803e3d6000fd5b505050506040513d601f19601f8201168201806040525081019061160f91906132c7565b90508061162f576040516312171d8360e31b815260040160405180910390fd5b505b867faf541d32d08f610bc972c187e7df44798be3b0312f37495ac0513e31eff6467e600184600060405161166793929190613315565b60405180910390a2505050505050610bef6001600055565b8180158061168e575060035481115b156116ac5760405163683267d360e11b815260040160405180910390fd5b6000838152600460209081526040808320600690925290912081546001600160a01b031633146116ef57604051636431e4c160e11b815260040160405180910390fd5b6005600383015460ff16600581111561170a5761170a612f6a565b14611728576040516307a92f1960e51b815260040160405180910390fd5b6006810154610100900460ff16156117535760405163f10068b560e01b815260040160405180910390fd5b836117715760405163162908e360e11b815260040160405180910390fd5b62093a80816004015461178491906132e9565b4211156117a4576040516338ac0a8560e01b815260040160405180910390fd5b60038101849055604051848152339086907fee0324d17e85288161de1f23ac51a0ec3f8453dda3d0e58ec058b2ba238c9433906020015b60405180910390a35050505050565b808015806117f9575060035481115b156118175760405163683267d360e11b815260040160405180910390fd5b600082815260046020526040902060018101546001600160a01b031633146118525760405163f722439560e01b815260040160405180910390fd5b6001600382015460ff16600581111561186d5761186d612f6a565b1461188b576040516307a92f1960e51b815260040160405180910390fd5b6001810180546001600160a01b031916905560038101805460ff19169055600060078201819055338082526005602052604080832083905551909185917f909d0309e792d4f17972cef6c4067bfd0b5fa112dd3aa00415fbac21afa3eb3e9190a3505050565b6000606082801580611904575060035481115b156119225760405163683267d360e11b815260040160405180910390fd5b60008481526004602052604090206005600382015460ff16600581111561194b5761194b612f6a565b0361198b576000604051806040016040528060168152602001754469737075746520616c72656164792065786973747360501b81525093509350506110d0565b60038082015460ff1660058111156119a5576119a5612f6a565b036119e757600060405180604001604052806018815260200177109bdd5b9d1e48185b1c9958591e4818dbdb5c1b195d195960421b81525093509350506110d0565b6004600382015460ff166005811115611a0257611a02612f6a565b03611a4457600060405180604001604052806018815260200177109bdd5b9d1e48185b1c9958591e4818d85b98d95b1b195960421b81525093509350506110d0565b6000600382015460ff166005811115611a5f57611a5f612f6a565b03611a9f57600060405180604001604052806016815260200175109bdd5b9d1e481b9bdd081e595d0818db185a5b595960521b81525093509350506110d0565b600881015460ff16600003611ad35760006040518060600160405280602581526020016133836025913993509350506110d0565b6001600382015460ff166005811115611aee57611aee612f6a565b148015611b015750600881015460ff1615155b15611b485760016040518060400160405280601b81526020017f43616e20646973707574652061667465722072656a656374696f6e000000000081525093509350506110d0565b6002600382015460ff166005811115611b6357611b63612f6a565b148015611b7a57506008810154600360ff90911610155b15611ba45760016040518060600160405280602681526020016133e26026913993509350506110d0565b60006040518060400160405280601b81526020017f43616e6e6f74206469737075746520617420746869732074696d650000000000815250935093505050915091565b82801580611bf6575060035481115b15611c145760405163683267d360e11b815260040160405180910390fd5b600084815260046020526040902080546001600160a01b03163314611c4c57604051636431e4c160e11b815260040160405180910390fd5b6002600382015460ff166005811115611c6757611c67612f6a565b14611c85576040516307a92f1960e51b815260040160405180910390fd5b60088101805460ff16906000611c9a83613334565b825460ff9182166101009390930a92830291909202199091161790555060038101805460ff19166001908117909155600060048301558101546040516001600160a01b039091169086907ffb1f2b2d59e15c4d9793571c3df2fc8aa0fed8c4308b8f71ff5a77678e571e72906117db9088908890613353565b600081801580611d24575060035481115b15611d425760405163683267d360e11b815260040160405180910390fd5b6000838152600460205260409020600581015415801590611d67575080600501544210155b949350505050565b6040805161010081018252600080825260208201819052918101829052606081018290526080810182905260a0810182905260c0810182905260e081019190915281801580611dbf575060035481115b15611ddd5760405163683267d360e11b815260040160405180910390fd5b6000838152600660208181526040928390208351610100810185528154815260018201546001600160a01b031692810192909252600281015493820193909352600380840154606083015260048401546080830152600584015460a08301529183015490929160c084019160ff1690811115611e5b57611e5b612f6a565b6003811115611e6c57611e6c612f6a565b815260069190910154610100900460ff1615156020909101529392505050565b611e94612ed5565b6008546001600160a01b03163314611ebf5760405163665b32d360e11b815260040160405180910390fd5b81801580611ece575060035481115b15611eec5760405163683267d360e11b815260040160405180910390fd5b600083815260046020908152604080832060069092529091206005600383015460ff166005811115611f2057611f20612f6a565b14611f3e576040516307a92f1960e51b815260040160405180910390fd5b6006810154610100900460ff1615611f695760405163f10068b560e01b815260040160405180910390fd5b6000846003811115611f7d57611f7d612f6a565b03611f9b576040516307a92f1960e51b815260040160405180910390fd5b60068101805485919060ff19166001836003811115611fbc57611fbc612f6a565b021790555060068101805461ff0019166101001790556003828101805460ff1916600183021790555060018201546001600160a01b031660009081526005602052604081208190556002805490840154829182916127109161201d91613262565b6120279190613279565b9050600187600381111561203d5761203d612f6a565b036121e7578360050154818660020154612057919061329b565b61206191906132e9565b600186015460405163a9059cbb60e01b81529194506000916001600160a01b037f000000000000000000000000000000000000000000000000000000000000000081169263a9059cbb926120be92919091169088906004016132ae565b6020604051808303816000875af11580156120dd573d6000803e3d6000fd5b505050506040513d601f19601f8201168201806040525081019061210191906132c7565b905080612121576040516312171d8360e31b815260040160405180910390fd5b81156121e15760015460405163a9059cbb60e01b81526000916001600160a01b037f000000000000000000000000000000000000000000000000000000000000000081169263a9059cbb9261217c92169087906004016132ae565b6020604051808303816000875af115801561219b573d6000803e3d6000fd5b505050506040513d601f19601f820116820180604052508101906121bf91906132c7565b9050806121df576040516312171d8360e31b815260040160405180910390fd5b505b506125df565b60028760038111156121fb576121fb612f6a565b03612326576002850154855460405163a9059cbb60e01b81529193506000916001600160a01b037f000000000000000000000000000000000000000000000000000000000000000081169263a9059cbb9261225f92919091169087906004016132ae565b6020604051808303816000875af115801561227e573d6000803e3d6000fd5b505050506040513d601f19601f820116820180604052508101906122a291906132c7565b9050806122c2576040516312171d8360e31b815260040160405180910390fd5b6005850154156121e157600154600586015460405163a9059cbb60e01b81526000926001600160a01b037f000000000000000000000000000000000000000000000000000000000000000081169363a9059cbb9361217c93909216916004016132ae565b600387600381111561233a5761233a612f6a565b036125df576000600286600201546123529190613279565b6005860154909150612365600284613279565b61236f908361329b565b61237991906132e9565b935080866002015461238b919061329b565b600187015460405163a9059cbb60e01b81529194506000916001600160a01b037f000000000000000000000000000000000000000000000000000000000000000081169263a9059cbb926123e892919091169089906004016132ae565b6020604051808303816000875af1158015612407573d6000803e3d6000fd5b505050506040513d601f19601f8201168201806040525081019061242b91906132c7565b90508061244b576040516312171d8360e31b815260040160405180910390fd5b865460405163a9059cbb60e01b81526000916001600160a01b037f000000000000000000000000000000000000000000000000000000000000000081169263a9059cbb9261249f92169089906004016132ae565b6020604051808303816000875af11580156124be573d6000803e3d6000fd5b505050506040513d601f19601f820116820180604052508101906124e291906132c7565b905080612502576040516312171d8360e31b815260040160405180910390fd5b600061250f600286613279565b11156125db576001546000906001600160a01b037f000000000000000000000000000000000000000000000000000000000000000081169163a9059cbb9116612559600289613279565b6040518363ffffffff1660e01b81526004016125769291906132ae565b6020604051808303816000875af1158015612595573d6000803e3d6000fd5b505050506040513d601f19601f820116820180604052508101906125b991906132c7565b9050806125d9576040516312171d8360e31b815260040160405180910390fd5b505b5050505b877faf541d32d08f610bc972c187e7df44798be3b0312f37495ac0513e31eff6467e88858560405161261393929190613315565b60405180910390a250505050505061262b6001600055565b5050565b612637612ed5565b80801580612646575060035481115b156126645760405163683267d360e11b815260040160405180910390fd5b600082815260046020526040902080546001600160a01b0316331461269c57604051636431e4c160e11b815260040160405180910390fd5b60038082015460ff1660058111156126b6576126b6612f6a565b14806126da57506004600382015460ff1660058111156126d8576126d8612f6a565b145b156126f8576040516307a92f1960e51b815260040160405180910390fd5b6001600382015460ff16600581111561271357612713612f6a565b148061273757506002600382015460ff16600581111561273557612735612f6a565b145b156127a05760008160050154600014158015612757575081600501544210155b9050600062278d00836007015461276e91906132e9565b42101590508115801561277f575080155b1561279d57604051637bd500c960e01b815260040160405180910390fd5b50505b600281015460018201546001600160a01b0316156127d65760018201546001600160a01b03166000908152600560205260408120555b6003820180546004919060ff19166001830217905550815460405163a9059cbb60e01b81526000916001600160a01b037f000000000000000000000000000000000000000000000000000000000000000081169263a9059cbb9261284092169086906004016132ae565b6020604051808303816000875af115801561285f573d6000803e3d6000fd5b505050506040513d601f19601f8201168201806040525081019061288391906132c7565b9050806128a3576040516312171d8360e31b815260040160405180910390fd5b604051828152339086907fb9670bf4f2273686f771c9ab65309436df5ed75afa63eefec8b67640d8bcf72c9060200160405180910390a350505050610bef6001600055565b6040805161012081018252600080825260208201819052918101829052606081018290526080810182905260a0810182905260c0810182905260e0810182905261010081019190915281801580612940575060035481115b1561295e5760405163683267d360e11b815260040160405180910390fd5b60008381526004602090815260409182902082516101208101845281546001600160a01b039081168252600183015416928101929092526002810154928201929092526003820154909190606083019060ff1660058111156129c2576129c2612f6a565b60058111156129d3576129d3612f6a565b81526004820154602082015260058201546040820152600682015460608201526007820154608082015260089091015460ff1660a0909101529392505050565b600a546001600160a01b03163314612a3e576040516330cd747160e01b815260040160405180910390fd5b6001600160a01b038116612a655760405163e6c4247b60e01b815260040160405180910390fd5b600180546001600160a01b038381166001600160a01b0319831681179093556040519116919082907f4ab5be82436d353e61ca18726e984e561f5c1cc7c6d38b29d2553c790434705a90600090a35050565b600a546001600160a01b03163314612ae2576040516330cd747160e01b815260040160405180910390fd5b6001600160a01b038116612b095760405163e6c4247b60e01b815260040160405180910390fd5b600a80546001600160a01b038381166001600160a01b0319831681179093556040519116919082907f8be0079c531659141344cd1fd0a4f28419497f9722a3daafe3b4186f6b6457e090600090a35050565b612b63612ed5565b81801580612b72575060035481115b15612b905760405163683267d360e11b815260040160405180910390fd5b600083815260046020526040902060018101546001600160a01b03163314612bcb5760405163f722439560e01b815260040160405180910390fd5b6005600382015460ff166005811115612be657612be6612f6a565b03612c04576040516328bea7b960e01b815260040160405180910390fd5b82612c225760405163162908e360e11b815260040160405180910390fd5b60006001600383015460ff166005811115612c3f57612c3f612f6a565b148015612c525750600882015460ff1615155b80612c8a57506002600383015460ff166005811115612c7357612c73612f6a565b148015612c8a57506008820154600360ff90911610155b905080612caa5760405163ca66862960e01b815260040160405180910390fd5b60095415612d72576009546040516323b872dd60e01b815233600482015230602482015260448101919091526000907f00000000000000000000000000000000000000000000000000000000000000006001600160a01b0316906323b872dd906064016020604051808303816000875af1158015612d2c573d6000803e3d6000fd5b505050506040513d601f19601f82011682018060405250810190612d5091906132c7565b905080612d70576040516312171d8360e31b815260040160405180910390fd5b505b60038201805460ff1916600517905560078054906000612d91836132fc565b9091555050604080516101008101825286815233602082015290810185905260006060820181905242608083015260095460a083015260c082019081526000602091820181905287815260068083526040918290208451815592840151600180850180546001600160a01b0319166001600160a01b039093169290921790915591840151600284015560608401516003808501919091556080850151600485015560a0850151600585015560c085015191840180549293909260ff1916918490811115612e6057612e60612f6a565b021790555060e09190910151600690910180549115156101000261ff0019909216919091179055600954604080518681526020810192909252339187917f605522489ec8713ad505f728db5660de9f277a376031c91c2806b6c781334277910160405180910390a350505061262b6001600055565b600260005403612ef857604051633ee5aeb560e01b815260040160405180910390fd5b6002600055565b60008060408385031215612f1257600080fd5b50508035926020909101359150565b600060208284031215612f3357600080fd5b5035919050565b600060208284031215612f4c57600080fd5b81356001600160a01b0381168114612f6357600080fd5b9392505050565b634e487b7160e01b600052602160045260246000fd5b60048110612f9057612f90612f6a565b9052565b8881526001600160a01b038816602082015260408101879052606081018690526080810185905260a081018490526101008101612fd460c0830185612f80565b82151560e08301529998505050505050505050565b82151581526000602060406020840152835180604085015260005b8181101561302057858101830151858201606001528201613004565b506000606082860101526060601f19601f830116850101925050509392505050565b60008060006040848603121561305757600080fd5b83359250602084013567ffffffffffffffff8082111561307657600080fd5b818601915086601f83011261308a57600080fd5b81358181111561309957600080fd5b8760208285010111156130ab57600080fd5b6020830194508093505050509250925092565b60068110612f9057612f90612f6a565b6001600160a01b038a81168252891660208201526040810188905261012081016130fb60608301896130be565b608082019690965260a081019490945260c084019290925260e083015260ff1661010090910152949350505050565b6000610100820190508251825260018060a01b03602084015116602083015260408301516040830152606083015160608301526080830151608083015260a083015160a083015260c083015161318360c0840182612f80565b5060e0928301511515919092015290565b600080604083850312156131a757600080fd5b823591506020830135600481106131bd57600080fd5b809150509250929050565b81516001600160a01b0390811682526020808401519091169082015260408083015190820152606080830151610120830191613206908401826130be565b506080830151608083015260a083015160a083015260c083015160c083015260e083015160e0830152610100808401516132448285018260ff169052565b505092915050565b634e487b7160e01b600052601160045260246000fd5b80820281158282048414176113445761134461324c565b60008261329657634e487b7160e01b600052601260045260246000fd5b500490565b818103818111156113445761134461324c565b6001600160a01b03929092168252602082015260400190565b6000602082840312156132d957600080fd5b81518015158114612f6357600080fd5b808201808211156113445761134461324c565b60006001820161330e5761330e61324c565b5060010190565b606081016133238286612f80565b602082019390935260400152919050565b600060ff821660ff810361334a5761334a61324c565b60010192915050565b60208152816020820152818360408301376000818301604090810191909152601f909201601f1916010191905056fe4e6f2072656a656374696f6e7320796574202d207375626d697420776f726b206669727374426f756e747920697320616374697665202d207761697420666f7220646561646c696e65206f72206d617820636c61696d206475726174696f6e43616e206175746f2d657363616c617465206166746572206d61782072656a656374696f6e73a2646970667358221220940c4ebb5b1aa8c6f9f4176be66f1161d29efc5044149b33c6d79390b02094bc64736f6c63430008180033",
  "linkReferences": {},
  "deployedLinkReferences": {}
}